{
  "contractName": "OrionVoting",
  "abi": [
    {
      "anonymous": false,
      "inputs": [
        {
          "indexed": true,
          "internalType": "address",
          "name": "previousOwner",
          "type": "address"
        },
        {
          "indexed": true,
          "internalType": "address",
          "name": "newOwner",
          "type": "address"
        }
      ],
      "name": "OwnershipTransferred",
      "type": "event"
    },
    {
      "inputs": [],
      "name": "owner",
      "outputs": [
        {
          "internalType": "address",
          "name": "",
          "type": "address"
        }
      ],
      "stateMutability": "view",
      "type": "function"
    },
    {
      "inputs": [
        {
          "internalType": "address",
          "name": "",
          "type": "address"
        }
      ],
      "name": "pool_states_",
      "outputs": [
        {
          "internalType": "uint8",
          "name": "state",
          "type": "uint8"
        },
        {
          "internalType": "uint56",
          "name": "votes",
          "type": "uint56"
        },
        {
          "internalType": "uint256",
          "name": "last_acc_reward_per_voting_token",
          "type": "uint256"
        },
        {
          "internalType": "uint256",
          "name": "acc_reward",
          "type": "uint256"
        }
      ],
      "stateMutability": "view",
      "type": "function"
    },
    {
      "inputs": [],
      "name": "renounceOwnership",
      "outputs": [],
      "stateMutability": "nonpayable",
      "type": "function"
    },
    {
      "inputs": [],
      "name": "reward_rate_",
      "outputs": [
        {
          "internalType": "uint64",
          "name": "",
          "type": "uint64"
        }
      ],
      "stateMutability": "view",
      "type": "function"
    },
    {
      "inputs": [],
      "name": "rewards_token_",
      "outputs": [
        {
          "internalType": "contract IERC20",
          "name": "",
          "type": "address"
        }
      ],
      "stateMutability": "view",
      "type": "function"
    },
    {
      "inputs": [],
      "name": "total_supply_",
      "outputs": [
        {
          "internalType": "uint56",
          "name": "",
          "type": "uint56"
        }
      ],
      "stateMutability": "view",
      "type": "function"
    },
    {
      "inputs": [
        {
          "internalType": "address",
          "name": "newOwner",
          "type": "address"
        }
      ],
      "name": "transferOwnership",
      "outputs": [],
      "stateMutability": "nonpayable",
      "type": "function"
    },
    {
      "inputs": [
        {
          "internalType": "address",
          "name": "",
          "type": "address"
        },
        {
          "internalType": "address",
          "name": "",
          "type": "address"
        }
      ],
      "name": "user_votes_",
      "outputs": [
        {
          "internalType": "uint56",
          "name": "voted_amount",
          "type": "uint56"
        }
      ],
      "stateMutability": "view",
      "type": "function"
    },
    {
      "inputs": [
        {
          "internalType": "address",
          "name": "rewards_token",
          "type": "address"
        },
        {
          "internalType": "address",
          "name": "governance_contract_address",
          "type": "address"
        }
      ],
      "name": "initialize",
      "outputs": [],
      "stateMutability": "nonpayable",
      "type": "function"
    },
    {
      "inputs": [
        {
          "internalType": "address",
          "name": "pool_address",
          "type": "address"
        },
        {
          "internalType": "uint8",
          "name": "new_state",
          "type": "uint8"
        }
      ],
      "name": "setPoolState",
      "outputs": [],
      "stateMutability": "nonpayable",
      "type": "function"
    },
    {
      "inputs": [
        {
          "internalType": "uint64",
          "name": "rewards",
          "type": "uint64"
        },
        {
          "internalType": "uint64",
          "name": "duration",
          "type": "uint64"
        }
      ],
      "name": "setRewards",
      "outputs": [],
      "stateMutability": "nonpayable",
      "type": "function"
    },
    {
      "inputs": [
        {
          "internalType": "address",
          "name": "poolAddress",
          "type": "address"
        },
        {
          "internalType": "uint56",
          "name": "amount",
          "type": "uint56"
        }
      ],
      "name": "vote",
      "outputs": [],
      "stateMutability": "nonpayable",
      "type": "function"
    },
    {
      "inputs": [
        {
          "internalType": "address",
          "name": "poolAddress",
          "type": "address"
        },
        {
          "internalType": "uint56",
          "name": "amount",
          "type": "uint56"
        }
      ],
      "name": "cease",
      "outputs": [],
      "stateMutability": "nonpayable",
      "type": "function"
    },
    {
      "inputs": [],
      "name": "totalSupply",
      "outputs": [
        {
          "internalType": "uint56",
          "name": "",
          "type": "uint56"
        }
      ],
      "stateMutability": "view",
      "type": "function"
    },
    {
      "inputs": [
        {
          "internalType": "address",
          "name": "pool_address",
          "type": "address"
        }
      ],
      "name": "votes",
      "outputs": [
        {
          "internalType": "uint56",
          "name": "",
          "type": "uint56"
        }
      ],
      "stateMutability": "view",
      "type": "function"
    },
    {
      "inputs": [],
      "name": "getRewardPerVotingToken",
      "outputs": [
        {
          "internalType": "uint256",
          "name": "",
          "type": "uint256"
        }
      ],
      "stateMutability": "view",
      "type": "function"
    },
    {
      "inputs": [
        {
          "internalType": "address",
          "name": "pool_address",
          "type": "address"
        }
      ],
      "name": "getPoolRewards",
      "outputs": [
        {
          "internalType": "uint256",
          "name": "",
          "type": "uint256"
        }
      ],
      "stateMutability": "view",
      "type": "function"
    },
    {
      "inputs": [
        {
          "internalType": "uint56",
          "name": "amount",
          "type": "uint56"
        },
        {
          "internalType": "address",
          "name": "to",
          "type": "address"
        }
      ],
      "name": "claimRewards",
      "outputs": [],
      "stateMutability": "nonpayable",
      "type": "function"
    }
  ],
  "bytecode": "0x608060405234801561001057600080fd5b50611812806100206000396000f3fe608060405234801561001057600080fd5b50600436106101165760003560e01c80638da5cb5b116100a2578063aefd9f5311610071578063aefd9f5314610331578063c3fe076514610356578063d8bff5a51461038b578063f2fde38b146103b1578063f7922f66146103d757610116565b80638da5cb5b146102ba578063a06e9eb1146102c2578063a55ce39e146102f1578063add1739a146102f957610116565b8063485cc955116100e9578063485cc955146101fc5780636a6d5e1d1461022a5780636ecee5431461024e578063715018a6146102835780637b7daeb01461028b57610116565b8063034999141461011b5780630549e0861461015257806318160ddd1461019c5780632bc7ac27146101a4575b600080fd5b6101506004803603604081101561013157600080fd5b50803566ffffffffffffff1690602001356001600160a01b03166103df565b005b6101806004803603604081101561016857600080fd5b506001600160a01b038135811691602001351661044d565b6040805166ffffffffffffff9092168252519081900360200190f35b610180610473565b6101ca600480360360208110156101ba57600080fd5b50356001600160a01b031661048a565b6040805160ff909516855266ffffffffffffff9093166020850152838301919091526060830152519081900360800190f35b6101506004803603604081101561021257600080fd5b506001600160a01b03813581169160200135166104be565b61023261059a565b604080516001600160a01b039092168252519081900360200190f35b6101506004803603604081101561026457600080fd5b5080356001600160a01b0316906020013566ffffffffffffff166105a9565b61015061081b565b610150600480360360408110156102a157600080fd5b5080356001600160a01b0316906020013560ff166108c7565b610232610956565b610150600480360360408110156102d857600080fd5b5067ffffffffffffffff81358116916020013516610965565b610180610ac3565b61031f6004803603602081101561030f57600080fd5b50356001600160a01b0316610ad9565b60408051918252519081900360200190f35b610339610b50565b6040805167ffffffffffffffff9092168252519081900360200190f35b6101506004803603604081101561036c57600080fd5b5080356001600160a01b0316906020013566ffffffffffffff16610b67565b610180600480360360208110156103a157600080fd5b50356001600160a01b0316610e44565b610150600480360360208110156103c757600080fd5b50356001600160a01b0316610e6d565b61031f610f70565b33600090815260996020526040902054600416610429576040805162461bcd60e51b8152602060048201526003602482015262524e4160e81b604482015290519081900360640190fd5b609854610449906001600160a01b03168266ffffffffffffff8516610ffa565b5050565b609c60209081526000928352604080842090915290825290205466ffffffffffffff1681565b609b54600160401b900466ffffffffffffff165b90565b60996020526000908152604090208054600182015460029092015460ff82169261010090920466ffffffffffffff16919084565b600054610100900460ff16806104d757506104d761104c565b806104e5575060005460ff16155b6105205760405162461bcd60e51b815260040180806020018281038252602e815260200180611744602e913960400191505060405180910390fd5b600054610100900460ff1615801561054b576000805460ff1961ff0019909116610100171660011790555b61055361105d565b609880546001600160a01b038086166001600160a01b03199283161790925560978054928516929091169190911790558015610595576000805461ff00191690555b505050565b6098546001600160a01b031681565b60026001541415610601576040805162461bcd60e51b815260206004820152601f60248201527f5265656e7472616e637947756172643a207265656e7472616e742063616c6c00604482015290519081900360640190fd5b60026001558161060f610f70565b609a55609b805467ffffffffffffffff19164267ffffffffffffffff161790556001600160a01b038116156106715761064781610ad9565b6001600160a01b03821660009081526099602052604090206002810191909155609a546001909101555b6001600160a01b0383166000908152609960205260409020546001166106c4576040805162461bcd60e51b8152602060048201526003602482015262564e4160e81b604482015290519081900360640190fd5b60008266ffffffffffffff1611610708576040805162461bcd60e51b815260206004820152600360248201526249565360e81b604482015290519081900360640190fd5b6097546040805163dc8d8abd60e01b815233600482015266ffffffffffffff8516602482015290516001600160a01b039092169163dc8d8abd9160448082019260009290919082900301818387803b15801561076357600080fd5b505af1158015610777573d6000803e3d6000fd5b5050609b805466ffffffffffffff600160401b8083048216880182160266ffffffffffffff60401b19909216919091179091556001600160a01b03909516600090815260996020908152604080832080546101008082048b168a018b160267ffffffffffffff0019909116179055609c82528083203384529091529020805480871690950190951666ffffffffffffff199094169390931790935550506001805550565b61082361110f565b6001600160a01b0316610834610956565b6001600160a01b03161461087d576040805162461bcd60e51b81526020600482018190526024820152600080516020611793833981519152604482015290519081900360640190fd5b6065546040516000916001600160a01b0316907f8be0079c531659141344cd1fd0a4f28419497f9722a3daafe3b4186f6b6457e0908390a3606580546001600160a01b0319169055565b6108cf61110f565b6001600160a01b03166108e0610956565b6001600160a01b031614610929576040805162461bcd60e51b81526020600482018190526024820152600080516020611793833981519152604482015290519081900360640190fd5b6001600160a01b03919091166000908152609960205260409020805460ff191660ff909216919091179055565b6065546001600160a01b031690565b61096d61110f565b6001600160a01b031661097e610956565b6001600160a01b0316146109c7576040805162461bcd60e51b81526020600482018190526024820152600080516020611793833981519152604482015290519081900360640190fd5b60006109d1610f70565b609a55609b805467ffffffffffffffff19164267ffffffffffffffff161790556001600160a01b03811615610a3357610a0981610ad9565b6001600160a01b03821660009081526099602052604090206002810191909155609a546001909101555b60008267ffffffffffffffff1611610a78576040805162461bcd60e51b815260206004820152600360248201526249443160e81b604482015290519081900360640190fd5b8167ffffffffffffffff168367ffffffffffffffff1681610a9557fe5b04609b600f6101000a81548167ffffffffffffffff021916908367ffffffffffffffff160217905550505050565b609b54600160401b900466ffffffffffffff1681565b6001600160a01b03811660009081526099602052604081206002810154600190910154610b4a9190610b4490610b1790610b11610f70565b90611113565b6001600160a01b038616600090815260996020526040902054610100900466ffffffffffffff1690611170565b906111d0565b92915050565b609b54600160781b900467ffffffffffffffff1681565b60026001541415610bbf576040805162461bcd60e51b815260206004820152601f60248201527f5265656e7472616e637947756172643a207265656e7472616e742063616c6c00604482015290519081900360640190fd5b600260015581610bcd610f70565b609a55609b805467ffffffffffffffff19164267ffffffffffffffff161790556001600160a01b03811615610c2f57610c0581610ad9565b6001600160a01b03821660009081526099602052604090206002810191909155609a546001909101555b6001600160a01b038316600090815260996020526040902054600216610c82576040805162461bcd60e51b8152602060048201526003602482015262434e4160e81b604482015290519081900360640190fd5b60008266ffffffffffffff1611610cc6576040805162461bcd60e51b815260206004820152600360248201526249435360e81b604482015290519081900360640190fd5b609754604080516361a2d10560e11b815233600482015266ffffffffffffff8516602482015290516001600160a01b039092169163c345a20a9160448082019260009290919082900301818387803b158015610d2157600080fd5b505af1158015610d35573d6000803e3d6000fd5b5050506001600160a01b0384166000908152609c6020908152604080832033845290915290205466ffffffffffffff90811691508316811015610da5576040805162461bcd60e51b815260206004820152600360248201526220a7a360e91b604482015290519081900360640190fd5b6001600160a01b039093166000818152609c602090815260408083203384528252808320805466ffffffffffffff98889003891666ffffffffffffff19909116179055609b8054600160401b8082048a168990038a160266ffffffffffffff60401b199091161790559282526099905220805461010080820486169490940390941690920267ffffffffffffff00199093169290921790555060018055565b6001600160a01b0316600090815260996020526040902054610100900466ffffffffffffff1690565b610e7561110f565b6001600160a01b0316610e86610956565b6001600160a01b031614610ecf576040805162461bcd60e51b81526020600482018190526024820152600080516020611793833981519152604482015290519081900360640190fd5b6001600160a01b038116610f145760405162461bcd60e51b81526004018080602001828103825260268152602001806116f86026913960400191505060405180910390fd5b6065546040516001600160a01b038084169216907f8be0079c531659141344cd1fd0a4f28419497f9722a3daafe3b4186f6b6457e090600090a3606580546001600160a01b0319166001600160a01b0392909216919091179055565b609b54600090600160401b900466ffffffffffffff16610f935750609a54610487565b609b54610ff390610fea9066ffffffffffffff600160401b82041690610fe490670de0b6b3a764000090610fde9067ffffffffffffffff600160781b82048116918391429116611113565b90611170565b9061122a565b609a54906111d0565b9050610487565b604080516001600160a01b038416602482015260448082018490528251808303909101815260649091019091526020810180516001600160e01b031663a9059cbb60e01b179052610595908490611291565b600061105730611342565b15905090565b600054610100900460ff1680611076575061107661104c565b80611084575060005460ff16155b6110bf5760405162461bcd60e51b815260040180806020018281038252602e815260200180611744602e913960400191505060405180910390fd5b600054610100900460ff161580156110ea576000805460ff1961ff0019909116610100171660011790555b6110f2611348565b6110fa6113e8565b801561110c576000805461ff00191690555b50565b3390565b60008282111561116a576040805162461bcd60e51b815260206004820152601e60248201527f536166654d6174683a207375627472616374696f6e206f766572666c6f770000604482015290519081900360640190fd5b50900390565b60008261117f57506000610b4a565b8282028284828161118c57fe5b04146111c95760405162461bcd60e51b81526004018080602001828103825260218152602001806117726021913960400191505060405180910390fd5b9392505050565b6000828201838110156111c9576040805162461bcd60e51b815260206004820152601b60248201527f536166654d6174683a206164646974696f6e206f766572666c6f770000000000604482015290519081900360640190fd5b6000808211611280576040805162461bcd60e51b815260206004820152601a60248201527f536166654d6174683a206469766973696f6e206279207a65726f000000000000604482015290519081900360640190fd5b81838161128957fe5b049392505050565b60006112e6826040518060400160405280602081526020017f5361666545524332303a206c6f772d6c6576656c2063616c6c206661696c6564815250856001600160a01b03166114e19092919063ffffffff16565b8051909150156105955780806020019051602081101561130557600080fd5b50516105955760405162461bcd60e51b815260040180806020018281038252602a8152602001806117b3602a913960400191505060405180910390fd5b3b151590565b600054610100900460ff1680611361575061136161104c565b8061136f575060005460ff16155b6113aa5760405162461bcd60e51b815260040180806020018281038252602e815260200180611744602e913960400191505060405180910390fd5b600054610100900460ff161580156110fa576000805460ff1961ff001990911661010017166001179055801561110c576000805461ff001916905550565b600054610100900460ff1680611401575061140161104c565b8061140f575060005460ff16155b61144a5760405162461bcd60e51b815260040180806020018281038252602e815260200180611744602e913960400191505060405180910390fd5b600054610100900460ff16158015611475576000805460ff1961ff0019909116610100171660011790555b600061147f61110f565b606580546001600160a01b0319166001600160a01b038316908117909155604051919250906000907f8be0079c531659141344cd1fd0a4f28419497f9722a3daafe3b4186f6b6457e0908290a350801561110c576000805461ff001916905550565b60606114f084846000856114f8565b949350505050565b6060824710156115395760405162461bcd60e51b815260040180806020018281038252602681526020018061171e6026913960400191505060405180910390fd5b61154285611342565b611593576040805162461bcd60e51b815260206004820152601d60248201527f416464726573733a2063616c6c20746f206e6f6e2d636f6e7472616374000000604482015290519081900360640190fd5b600080866001600160a01b031685876040518082805190602001908083835b602083106115d15780518252601f1990920191602091820191016115b2565b6001836020036101000a03801982511681845116808217855250505050505090500191505060006040518083038185875af1925050503d8060008114611633576040519150601f19603f3d011682016040523d82523d6000602084013e611638565b606091505b5091509150611648828286611653565b979650505050505050565b606083156116625750816111c9565b8251156116725782518084602001fd5b8160405162461bcd60e51b81526004018080602001828103825283818151815260200191508051906020019080838360005b838110156116bc5781810151838201526020016116a4565b50505050905090810190601f1680156116e95780820380516001836020036101000a031916815260200191505b509250505060405180910390fdfe4f776e61626c653a206e6577206f776e657220697320746865207a65726f2061646472657373416464726573733a20696e73756666696369656e742062616c616e636520666f722063616c6c496e697469616c697a61626c653a20636f6e747261637420697320616c726561647920696e697469616c697a6564536166654d6174683a206d756c7469706c69636174696f6e206f766572666c6f774f776e61626c653a2063616c6c6572206973206e6f7420746865206f776e65725361666545524332303a204552433230206f7065726174696f6e20646964206e6f742073756363656564a2646970667358221220552f394fe1abacc51f3ed35ca019a527e78475c5b36a11f794e87d647a2a6dca64736f6c63430007060033",
  "immutableReferences": {},
  "source": "// SPDX-License-Identifier: MIT\r\npragma solidity 0.7.6;\r\n\r\nimport \"./interfaces/IOrionVoting.sol\";\r\nimport \"./interfaces/IOrionGovernance.sol\";\r\n\r\nimport \"@openzeppelin/contracts/token/ERC20/IERC20.sol\";\r\nimport \"@openzeppelin/contracts/token/ERC20/SafeERC20.sol\";\r\nimport \"@openzeppelin/contracts/math/SafeMath.sol\";\r\n\r\nimport \"@openzeppelin/contracts-upgradeable/utils/ReentrancyGuardUpgradeable.sol\";\r\nimport \"@openzeppelin/contracts-upgradeable/access/OwnableUpgradeable.sol\";\r\n\r\ncontract OrionVoting is IOrionVoting, ReentrancyGuardUpgradeable, OwnableUpgradeable\r\n{\r\n    using SafeERC20 for IERC20;\r\n    using SafeMath for uint256;\r\n\r\n    //  State flags\r\n    uint8 constant kVoteAvailable = 1;\r\n    uint8 constant kCeaseAvailable = 2;\r\n    uint8 constant kRewardsAvailable = 4;\r\n\r\n    //  We constantly\r\n    //  New accumulator variables\r\n\r\n    //  Calculated-per-pool state.\r\n    struct OrionPoolState\r\n    {\r\n        uint8 state;\r\n\r\n        //  Overall pool supply (in ORN)\r\n        uint56  votes;\r\n\r\n        //  And \"paid\" (already used) value of acc_reward_per_voting_token_ at this time\r\n        uint256 last_acc_reward_per_voting_token;\r\n\r\n        //  And pool own accumulator\r\n        //      It stores pool-rewards-per-second (ORN * 10**18 / sec)\r\n        uint256 acc_reward;\r\n    }\r\n\r\n    //  User-voted-per-stakingrewards state. Now holds only amount, but can grow\r\n    struct UserVotingState\r\n    {\r\n        uint56 voted_amount;\r\n    }\r\n\r\n    ///////////////////////////////////////////////////\r\n    //  Data fields\r\n    //  NB: Only add new fields BELOW any fields in this section\r\n\r\n    IOrionGovernance private governance_;\r\n    IERC20 public rewards_token_;\r\n\r\n    //  Pool vote states\r\n    mapping(address => OrionPoolState) public pool_states_;\r\n\r\n    //  Payment for 1 voted ORN in 1 second (10**18 / sec)\r\n    uint256  acc_reward_per_voting_token_;\r\n\r\n    uint64   last_update_time_;\r\n\r\n    //  Max total supply is the max ORN count - i.e. 10**8 * 10**8 = 10**16 < uint56\r\n    uint56 public total_supply_;\r\n\r\n    //  1 / sec\r\n    uint64 public reward_rate_;\r\n\r\n    mapping(address => mapping(address => UserVotingState)) public user_votes_;\r\n\r\n    //  Add new data fields there....\r\n    //      ...\r\n\r\n    //  End of data fields\r\n    /////////////////////////////////////////////////////\r\n\r\n    //  Constructor\r\n    function initialize(\r\n        address rewards_token,\r\n        address governance_contract_address\r\n    ) public initializer {\r\n        OwnableUpgradeable.__Ownable_init();\r\n        rewards_token_ = IERC20(rewards_token);\r\n        governance_ = IOrionGovernance(governance_contract_address);\r\n    }\r\n\r\n    //  Sets the pool state (if state not set - users can't do anything with pool)\r\n    function setPoolState(address pool_address, uint8 new_state) external onlyOwner\r\n    {\r\n        pool_states_[pool_address].state = new_state;\r\n    }\r\n\r\n    //  Set the overall reward\r\n    function setRewards(uint64 rewards, uint64 duration) external onlyOwner updateVotes(address(0))\r\n    {\r\n        require(duration > 0, \"ID1\");\r\n        //  We can set rewards to 0\r\n        //  require(rewards > 0, \"invalid rewards\");\r\n\r\n        //  ORN / sec\r\n        reward_rate_ = rewards / duration;\r\n    }\r\n\r\n    function vote(address poolAddress, uint56 amount) public nonReentrant updateVotes(poolAddress)\r\n    {\r\n        require(pool_states_[poolAddress].state & kVoteAvailable != 0, \"VNA\");  //  Vptes not available\r\n\r\n        //  Sanity check\r\n        require(amount > 0, \"IVS\");\r\n        governance_.acceptLock(msg.sender, amount);\r\n        //  At least, user has these money\r\n\r\n        //////////////////////////////////////////////////////////////////////\r\n        total_supply_ = total_supply_ + amount;\r\n        pool_states_[poolAddress].votes = pool_states_[poolAddress].votes + amount;\r\n        user_votes_[poolAddress][msg.sender].voted_amount += amount;\r\n    }\r\n\r\n    function cease(address poolAddress, uint56 amount) public nonReentrant updateVotes(poolAddress)\r\n    {\r\n        require(pool_states_[poolAddress].state & kCeaseAvailable != 0, \"CNA\");\r\n\r\n        require(amount > 0, \"ICS\"); //  Invalid cease size\r\n        governance_.acceptUnlock(msg.sender, amount);\r\n\r\n        uint56 user_voted_amount = user_votes_[poolAddress][msg.sender].voted_amount;\r\n        require(user_voted_amount >= amount, \"AOF\");\r\n        user_votes_[poolAddress][msg.sender].voted_amount = user_voted_amount - amount;\r\n\r\n        //////////////////////////////////////////////////////////////////////\r\n        total_supply_ = total_supply_ - amount;\r\n        pool_states_[poolAddress].votes = pool_states_[poolAddress].votes - amount;\r\n    }\r\n\r\n\r\n    //  Views\r\n    function totalSupply() external view returns (uint56) {\r\n        return total_supply_;\r\n    }\r\n\r\n    function votes(address pool_address) external view returns(uint56)\r\n    {\r\n        return pool_states_[pool_address].votes;\r\n    }\r\n\r\n    //  It will be ORN / ORN, i.e just number\r\n    function getRewardPerVotingToken() public view returns (uint256) {\r\n        if (total_supply_ == 0) {\r\n            return acc_reward_per_voting_token_;\r\n        } else {\r\n            return\r\n                acc_reward_per_voting_token_.add(\r\n                    block.timestamp.sub(last_update_time_).mul(uint256(reward_rate_)).mul(1e18).div(total_supply_)\r\n                );\r\n        }\r\n    }\r\n\r\n    function getPoolRewards(address pool_address) override public view returns (uint256) {\r\n        return uint256(pool_states_[pool_address].votes)\r\n            .mul(getRewardPerVotingToken().sub(pool_states_[pool_address].last_acc_reward_per_voting_token))\r\n            .add(pool_states_[pool_address].acc_reward);\r\n    }\r\n\r\n    function claimRewards(uint56 amount, address to) override external {\r\n        //  It MUST be non-reentrant at level of calling contract\r\n        require(pool_states_[msg.sender].state & kRewardsAvailable != 0, \"RNA\");\r\n        rewards_token_.safeTransfer(to, amount);\r\n    }\r\n\r\n    /* ========== MODIFIERS ========== */\r\n\r\n    modifier updateVotes(address poolAddress) {\r\n        acc_reward_per_voting_token_ = getRewardPerVotingToken();\r\n        last_update_time_ = uint64(block.timestamp);\r\n\r\n        if (poolAddress != address(0)) {\r\n            pool_states_[poolAddress].acc_reward = getPoolRewards(poolAddress);\r\n            pool_states_[poolAddress].last_acc_reward_per_voting_token = acc_reward_per_voting_token_;\r\n        }\r\n        _;\r\n    }\r\n}\r\n",
  "sourcePath": "C:/work/orion-14/orn-liquidity-mining/contracts/OrionVoting.sol",
  "compiler": {
    "name": "solc",
    "version": "0.7.6+commit.7338295f.Emscripten.clang"
  },
  "schemaVersion": "3.4.0",
  "updatedAt": "2021-06-03T17:34:44.755Z",
  "devdoc": {
    "kind": "dev",
    "methods": {
      "owner()": {
        "details": "Returns the address of the current owner."
      },
      "renounceOwnership()": {
        "details": "Leaves the contract without owner. It will not be possible to call `onlyOwner` functions anymore. Can only be called by the current owner. NOTE: Renouncing ownership will leave the contract without an owner, thereby removing any functionality that is only available to the owner."
      },
      "transferOwnership(address)": {
        "details": "Transfers ownership of the contract to a new account (`newOwner`). Can only be called by the current owner."
      }
    },
    "version": 1
  },
  "userdoc": {
    "kind": "user",
    "methods": {},
    "version": 1
  }
}