{
  "contractName": "OrionGovernance",
  "abi": [
    {
      "anonymous": false,
      "inputs": [
        {
          "indexed": true,
          "internalType": "address",
          "name": "previousOwner",
          "type": "address"
        },
        {
          "indexed": true,
          "internalType": "address",
          "name": "newOwner",
          "type": "address"
        }
      ],
      "name": "OwnershipTransferred",
      "type": "event"
    },
    {
      "anonymous": false,
      "inputs": [
        {
          "indexed": false,
          "internalType": "uint256",
          "name": "reward",
          "type": "uint256"
        }
      ],
      "name": "RewardAdded",
      "type": "event"
    },
    {
      "anonymous": false,
      "inputs": [
        {
          "indexed": true,
          "internalType": "address",
          "name": "user",
          "type": "address"
        },
        {
          "indexed": false,
          "internalType": "uint256",
          "name": "reward",
          "type": "uint256"
        }
      ],
      "name": "RewardPaid",
      "type": "event"
    },
    {
      "anonymous": false,
      "inputs": [
        {
          "indexed": true,
          "internalType": "address",
          "name": "user",
          "type": "address"
        },
        {
          "indexed": false,
          "internalType": "uint256",
          "name": "amount",
          "type": "uint256"
        }
      ],
      "name": "Staked",
      "type": "event"
    },
    {
      "anonymous": false,
      "inputs": [
        {
          "indexed": true,
          "internalType": "address",
          "name": "user",
          "type": "address"
        },
        {
          "indexed": false,
          "internalType": "uint256",
          "name": "amount",
          "type": "uint256"
        }
      ],
      "name": "Withdrawn",
      "type": "event"
    },
    {
      "inputs": [
        {
          "internalType": "address",
          "name": "",
          "type": "address"
        }
      ],
      "name": "balances_",
      "outputs": [
        {
          "internalType": "uint56",
          "name": "balance",
          "type": "uint56"
        },
        {
          "internalType": "uint56",
          "name": "locked_balance",
          "type": "uint56"
        }
      ],
      "stateMutability": "view",
      "type": "function"
    },
    {
      "inputs": [],
      "name": "lastUpdateTime",
      "outputs": [
        {
          "internalType": "uint256",
          "name": "",
          "type": "uint256"
        }
      ],
      "stateMutability": "view",
      "type": "function"
    },
    {
      "inputs": [],
      "name": "owner",
      "outputs": [
        {
          "internalType": "address",
          "name": "",
          "type": "address"
        }
      ],
      "stateMutability": "view",
      "type": "function"
    },
    {
      "inputs": [],
      "name": "periodFinish",
      "outputs": [
        {
          "internalType": "uint256",
          "name": "",
          "type": "uint256"
        }
      ],
      "stateMutability": "view",
      "type": "function"
    },
    {
      "inputs": [],
      "name": "renounceOwnership",
      "outputs": [],
      "stateMutability": "nonpayable",
      "type": "function"
    },
    {
      "inputs": [],
      "name": "rewardPerTokenStored",
      "outputs": [
        {
          "internalType": "uint256",
          "name": "",
          "type": "uint256"
        }
      ],
      "stateMutability": "view",
      "type": "function"
    },
    {
      "inputs": [],
      "name": "rewardRate",
      "outputs": [
        {
          "internalType": "uint256",
          "name": "",
          "type": "uint256"
        }
      ],
      "stateMutability": "view",
      "type": "function"
    },
    {
      "inputs": [
        {
          "internalType": "address",
          "name": "",
          "type": "address"
        }
      ],
      "name": "rewards",
      "outputs": [
        {
          "internalType": "uint256",
          "name": "",
          "type": "uint256"
        }
      ],
      "stateMutability": "view",
      "type": "function"
    },
    {
      "inputs": [],
      "name": "rewardsDuration",
      "outputs": [
        {
          "internalType": "uint256",
          "name": "",
          "type": "uint256"
        }
      ],
      "stateMutability": "view",
      "type": "function"
    },
    {
      "inputs": [],
      "name": "staking_token_",
      "outputs": [
        {
          "internalType": "contract IERC20",
          "name": "",
          "type": "address"
        }
      ],
      "stateMutability": "view",
      "type": "function"
    },
    {
      "inputs": [],
      "name": "total_balance_",
      "outputs": [
        {
          "internalType": "uint56",
          "name": "",
          "type": "uint56"
        }
      ],
      "stateMutability": "view",
      "type": "function"
    },
    {
      "inputs": [
        {
          "internalType": "address",
          "name": "newOwner",
          "type": "address"
        }
      ],
      "name": "transferOwnership",
      "outputs": [],
      "stateMutability": "nonpayable",
      "type": "function"
    },
    {
      "inputs": [
        {
          "internalType": "address",
          "name": "",
          "type": "address"
        }
      ],
      "name": "userRewardPerTokenPaid",
      "outputs": [
        {
          "internalType": "uint256",
          "name": "",
          "type": "uint256"
        }
      ],
      "stateMutability": "view",
      "type": "function"
    },
    {
      "inputs": [],
      "name": "voting_contract_address_",
      "outputs": [
        {
          "internalType": "address",
          "name": "",
          "type": "address"
        }
      ],
      "stateMutability": "view",
      "type": "function"
    },
    {
      "inputs": [
        {
          "internalType": "address",
          "name": "staking_token",
          "type": "address"
        }
      ],
      "name": "initialize",
      "outputs": [],
      "stateMutability": "nonpayable",
      "type": "function"
    },
    {
      "inputs": [
        {
          "internalType": "address",
          "name": "voting_contract_address",
          "type": "address"
        }
      ],
      "name": "setVotingContractAddress",
      "outputs": [],
      "stateMutability": "nonpayable",
      "type": "function"
    },
    {
      "inputs": [],
      "name": "lastTimeRewardApplicable",
      "outputs": [
        {
          "internalType": "uint256",
          "name": "",
          "type": "uint256"
        }
      ],
      "stateMutability": "view",
      "type": "function"
    },
    {
      "inputs": [],
      "name": "rewardPerToken",
      "outputs": [
        {
          "internalType": "uint256",
          "name": "",
          "type": "uint256"
        }
      ],
      "stateMutability": "view",
      "type": "function"
    },
    {
      "inputs": [
        {
          "internalType": "address",
          "name": "account",
          "type": "address"
        }
      ],
      "name": "earned",
      "outputs": [
        {
          "internalType": "uint256",
          "name": "",
          "type": "uint256"
        }
      ],
      "stateMutability": "view",
      "type": "function"
    },
    {
      "inputs": [],
      "name": "getRewardForDuration",
      "outputs": [
        {
          "internalType": "uint256",
          "name": "",
          "type": "uint256"
        }
      ],
      "stateMutability": "view",
      "type": "function"
    },
    {
      "inputs": [
        {
          "internalType": "uint56",
          "name": "adding_amount",
          "type": "uint56"
        }
      ],
      "name": "stake",
      "outputs": [],
      "stateMutability": "nonpayable",
      "type": "function"
    },
    {
      "inputs": [
        {
          "internalType": "uint56",
          "name": "removing_amount",
          "type": "uint56"
        }
      ],
      "name": "withdraw",
      "outputs": [],
      "stateMutability": "nonpayable",
      "type": "function"
    },
    {
      "inputs": [],
      "name": "getReward",
      "outputs": [],
      "stateMutability": "nonpayable",
      "type": "function"
    },
    {
      "inputs": [],
      "name": "exit",
      "outputs": [],
      "stateMutability": "nonpayable",
      "type": "function"
    },
    {
      "inputs": [
        {
          "internalType": "address",
          "name": "user",
          "type": "address"
        },
        {
          "internalType": "uint56",
          "name": "new_lock_amount",
          "type": "uint56"
        }
      ],
      "name": "acceptNewLockAmount",
      "outputs": [],
      "stateMutability": "nonpayable",
      "type": "function"
    },
    {
      "inputs": [
        {
          "internalType": "address",
          "name": "user",
          "type": "address"
        },
        {
          "internalType": "uint56",
          "name": "lock_increase_amount",
          "type": "uint56"
        }
      ],
      "name": "acceptLock",
      "outputs": [],
      "stateMutability": "nonpayable",
      "type": "function"
    },
    {
      "inputs": [
        {
          "internalType": "address",
          "name": "user",
          "type": "address"
        },
        {
          "internalType": "uint56",
          "name": "lock_decrease_amount",
          "type": "uint56"
        }
      ],
      "name": "acceptUnlock",
      "outputs": [],
      "stateMutability": "nonpayable",
      "type": "function"
    },
    {
      "inputs": [
        {
          "internalType": "address",
          "name": "user",
          "type": "address"
        }
      ],
      "name": "getBalance",
      "outputs": [
        {
          "internalType": "uint56",
          "name": "",
          "type": "uint56"
        }
      ],
      "stateMutability": "view",
      "type": "function"
    },
    {
      "inputs": [
        {
          "internalType": "address",
          "name": "user",
          "type": "address"
        }
      ],
      "name": "getLockedBalance",
      "outputs": [
        {
          "internalType": "uint56",
          "name": "",
          "type": "uint56"
        }
      ],
      "stateMutability": "view",
      "type": "function"
    },
    {
      "inputs": [],
      "name": "getTotalBalance",
      "outputs": [
        {
          "internalType": "uint56",
          "name": "",
          "type": "uint56"
        }
      ],
      "stateMutability": "view",
      "type": "function"
    },
    {
      "inputs": [
        {
          "internalType": "uint256",
          "name": "reward",
          "type": "uint256"
        },
        {
          "internalType": "uint256",
          "name": "_rewardsDuration",
          "type": "uint256"
        }
      ],
      "name": "notifyRewardAmount",
      "outputs": [],
      "stateMutability": "nonpayable",
      "type": "function"
    },
    {
      "inputs": [
        {
          "internalType": "address",
          "name": "asset",
          "type": "address"
        }
      ],
      "name": "emergencyAssetWithdrawal",
      "outputs": [],
      "stateMutability": "nonpayable",
      "type": "function"
    }
  ],
  "bytecode": "0x608060405234801561001057600080fd5b506121c6806100206000396000f3fe608060405234801561001057600080fd5b50600436106101ef5760003560e01c80637f8512c11161010f578063c948953a116100a2578063e9fad8ee11610071578063e9fad8ee1461051d578063ebe2b12b14610525578063f2fde38b1461052d578063f8b2cb4f14610553576101ef565b8063c948953a146104d0578063cd3daf9d146104d8578063dc8d8abd146104e0578063df136d6514610515576101ef565b8063c345a20a116100de578063c345a20a14610447578063c40868931461047c578063c4d66de8146104a2578063c8f33c91146104c8576101ef565b80637f8512c1146103eb57806380faa57d146104115780638b876347146104195780638da5cb5b1461043f576101ef565b806362b08e7011610187578063715018a611610156578063715018a6146103ad57806377e84f73146103b55780637b0a47ee146103bd5780637d793edd146103c5576101ef565b806362b08e70146102d957806362eb1e0d146102ff57806366be05da146103345780636ca34ea214610358576101ef565b8063246132f9116101c3578063246132f91461027e578063386a9525146102a35780633d18b912146102ab57806353498dfb146102b3576101ef565b80628cc262146101f45780630700037d1461022c57806312b58349146102525780631c1f78eb14610276575b600080fd5b61021a6004803603602081101561020a57600080fd5b50356001600160a01b0316610579565b60408051918252519081900360200190f35b61021a6004803603602081101561024257600080fd5b50356001600160a01b0316610600565b61025a610612565b6040805166ffffffffffffff9092168252519081900360200190f35b61021a610629565b6102a16004803603604081101561029457600080fd5b5080359060200135610647565b005b61021a6108ff565b6102a1610905565b6102a1600480360360208110156102c957600080fd5b503566ffffffffffffff16610a3b565b6102a1600480360360208110156102ef57600080fd5b50356001600160a01b0316610d0a565b6102a16004803603604081101561031557600080fd5b5080356001600160a01b0316906020013566ffffffffffffff16610d8e565b61033c610e8b565b604080516001600160a01b039092168252519081900360200190f35b61037e6004803603602081101561036e57600080fd5b50356001600160a01b0316610e9a565b604051808366ffffffffffffff1681526020018266ffffffffffffff1681526020019250505060405180910390f35b6102a1610ec0565b61033c610f6c565b61021a610f7b565b6102a1600480360360208110156103db57600080fd5b503566ffffffffffffff16610f81565b6102a16004803603602081101561040157600080fd5b50356001600160a01b03166111e9565b61021a6112de565b61021a6004803603602081101561042f57600080fd5b50356001600160a01b03166112f6565b61033c611308565b6102a16004803603604081101561045d57600080fd5b5080356001600160a01b0316906020013566ffffffffffffff16611317565b61025a6004803603602081101561049257600080fd5b50356001600160a01b0316611473565b6102a1600480360360208110156104b857600080fd5b50356001600160a01b031661149e565b61021a6115a7565b61025a6115ad565b61021a6115c3565b6102a1600480360360408110156104f657600080fd5b5080356001600160a01b0316906020013566ffffffffffffff1661163a565b61021a6117ea565b6102a16117f0565b61021a61181c565b6102a16004803603602081101561054357600080fd5b50356001600160a01b0316611822565b61025a6004803603602081101561056957600080fd5b50356001600160a01b0316611925565b6001600160a01b038116600090815260a06020908152604080832054609f9092528220546105fa91906105f490670de0b6b3a7640000906105ee906105c6906105c06115c3565b90611949565b6001600160a01b03881660009081526098602052604090205466ffffffffffffff16906119a6565b90611a06565b90611a6d565b92915050565b60a06020526000908152604090205481565b609954600160a01b900466ffffffffffffff165b90565b6000610642609c54609b546119a690919063ffffffff16565b905090565b61064f611ac7565b6001600160a01b0316610660611308565b6001600160a01b0316146106a9576040805162461bcd60e51b81526020600482018190526024820152600080516020612147833981519152604482015290519081900360640190fd5b60006106b36115c3565b609e556106be6112de565b609d556001600160a01b03811615610705576106d981610579565b6001600160a01b038216600090815260a06020908152604080832093909355609e54609f909152919020555b620151808211801561071a57506301e1338082105b61076b576040805162461bcd60e51b815260206004820152601a60248201527f496e636f72726563742072657761726473206475726174696f6e000000000000604482015290519081900360640190fd5b609c829055609a54421061078f57609c54610787908490611a06565b609b556107d2565b609a5460009061079f9042611949565b905060006107b8609b54836119a690919063ffffffff16565b609c549091506107cc906105ee8784611a6d565b609b5550505b609754604080516370a0823160e01b815230600482015290516000926001600160a01b0316916370a08231916024808301926020929190829003018186803b15801561081d57600080fd5b505afa158015610831573d6000803e3d6000fd5b505050506040513d602081101561084757600080fd5b5051609c5490915061085a908290611a06565b609b5411156108b0576040805162461bcd60e51b815260206004820152601860248201527f50726f76696465642072657761726420746f6f20686967680000000000000000604482015290519081900360640190fd5b42609d819055609c546108c39190611a6d565b609a556040805185815290517fde88a922e0d3b88b24e9623efeb464919c6bf9f66857a65e2bfcf2ce87a9433d9181900360200190a150505050565b609c5481565b6002600154141561095d576040805162461bcd60e51b815260206004820152601f60248201527f5265656e7472616e637947756172643a207265656e7472616e742063616c6c00604482015290519081900360640190fd5b60026001553361096b6115c3565b609e556109766112de565b609d556001600160a01b038116156109bd5761099181610579565b6001600160a01b038216600090815260a06020908152604080832093909355609e54609f909152919020555b33600090815260a060205260409020548015610a335733600081815260a060205260408120556097546109fc916001600160a01b039091169083611acb565b60408051828152905133917fe2403640ba68fed3a2f88b7557551d1993f84b99bb10ff833f0cf8db0c5e0486919081900360200190a25b505060018055565b60026001541415610a93576040805162461bcd60e51b815260206004820152601f60248201527f5265656e7472616e637947756172643a207265656e7472616e742063616c6c00604482015290519081900360640190fd5b600260015533610aa16115c3565b609e55610aac6112de565b609d556001600160a01b03811615610af357610ac781610579565b6001600160a01b038216600090815260a06020908152604080832093909355609e54609f909152919020555b60008266ffffffffffffff1611610b3a576040805162461bcd60e51b815260206004808301919091526024820152630434e57360e41b604482015290519081900360640190fd5b3360009081526098602052604090205466ffffffffffffff908116908316811015610b95576040805162461bcd60e51b81526020600480830191909152602482015263434e573160e01b604482015290519081900360640190fd5b336000908152609860205260409020805466ffffffffffffff19169184900366ffffffffffffff818116939093179091556099549091600160a01b9091048116908416811015610c15576040805162461bcd60e51b8152602060048083019190915260248201526321a72b9960e11b604482015290519081900360640190fd5b6099805466ffffffffffffff92869003838116600160a01b0266ffffffffffffff60a01b1990921691909117909155336000908152609860205260409020549091600160381b9091048116908316811115610ca0576040805162461bcd60e51b81526020600480830191909152602482015263434e573360e01b604482015290519081900360640190fd5b609754610cc0906001600160a01b03163366ffffffffffffff8816611acb565b6040805166ffffffffffffff87168152905133917f7084f5476618d8e60b11ef0d7d3f06914655adb8793e28ff7f018d4c76d505d5919081900360200190a2505060018055505050565b610d12611ac7565b6001600160a01b0316610d23611308565b6001600160a01b031614610d6c576040805162461bcd60e51b81526020600482018190526024820152600080516020612147833981519152604482015290519081900360640190fd5b609980546001600160a01b0319166001600160a01b0392909216919091179055565b6099546001600160a01b03163314610dde576040805162461bcd60e51b815260206004820152600e60248201526d6d75737420626520766f74696e6760901b604482015290519081900360640190fd5b6001600160a01b03821660009081526098602052604090205466ffffffffffffff908116908216811015610e47576040805162461bcd60e51b815260206004820152600b60248201526a43616e6e6f74206c6f636b60a81b604482015290519081900360640190fd5b506001600160a01b039091166000908152609860205260409020805466ffffffffffffff909216600160381b0266ffffffffffffff60381b19909216919091179055565b6097546001600160a01b031681565b60986020526000908152604090205466ffffffffffffff80821691600160381b90041682565b610ec8611ac7565b6001600160a01b0316610ed9611308565b6001600160a01b031614610f22576040805162461bcd60e51b81526020600482018190526024820152600080516020612147833981519152604482015290519081900360640190fd5b6065546040516000916001600160a01b0316907f8be0079c531659141344cd1fd0a4f28419497f9722a3daafe3b4186f6b6457e0908390a3606580546001600160a01b0319169055565b6099546001600160a01b031681565b609b5481565b60026001541415610fd9576040805162461bcd60e51b815260206004820152601f60248201527f5265656e7472616e637947756172643a207265656e7472616e742063616c6c00604482015290519081900360640190fd5b600260015533610fe76115c3565b609e55610ff26112de565b609d556001600160a01b038116156110395761100d81610579565b6001600160a01b038216600090815260a06020908152604080832093909355609e54609f909152919020555b60008266ffffffffffffff1611611080576040805162461bcd60e51b815260206004808301919091526024820152630434e53360e41b604482015290519081900360640190fd5b6097546110a1906001600160a01b0316333066ffffffffffffff8616611b22565b3360009081526098602052604090205466ffffffffffffff9081168301908381169082161015611100576040805162461bcd60e51b81526020600482015260056024820152644f4628312960d81b604482015290519081900360640190fd5b336000908152609860205260409020805466ffffffffffffff191666ffffffffffffff83811691909117909155609954600160a01b90048116840190848116908216101561117d576040805162461bcd60e51b81526020600482015260056024820152644f4628332960d81b604482015290519081900360640190fd5b6099805466ffffffffffffff808416600160a01b0266ffffffffffffff60a01b19909216919091179091556040805191861682525133917f9e71bc8eea02a63969f509818f2dafb9254532904319f9dbda79b67bd34a5f3d919081900360200190a25050600180555050565b6111f1611ac7565b6001600160a01b0316611202611308565b6001600160a01b03161461124b576040805162461bcd60e51b81526020600482018190526024820152600080516020612147833981519152604482015290519081900360640190fd5b806112da611257611308565b604080516370a0823160e01b815230600482015290516001600160a01b038516916370a08231916024808301926020929190829003018186803b15801561129d57600080fd5b505afa1580156112b1573d6000803e3d6000fd5b505050506040513d60208110156112c757600080fd5b50516001600160a01b0384169190611acb565b5050565b6000609a5442106112f157609a54610642565b504290565b609f6020526000908152604090205481565b6065546001600160a01b031690565b6099546001600160a01b03163314611367576040805162461bcd60e51b815260206004820152600e60248201526d6d75737420626520766f74696e6760901b604482015290519081900360640190fd5b60008166ffffffffffffff16116113b6576040805162461bcd60e51b815260206004820152600e60248201526d043616e27742064656320627920360941b604482015290519081900360640190fd5b6001600160a01b03821660009081526098602052604090205466ffffffffffffff600160381b909104811690821681101561142c576040805162461bcd60e51b815260206004820152601160248201527043616e277420756e6c6f636b206d6f726560781b604482015290519081900360640190fd5b6001600160a01b03929092166000908152609860205260409020805466ffffffffffffff60381b1916600160381b9290930366ffffffffffffff1691909102919091179055565b6001600160a01b0316600090815260986020526040902054600160381b900466ffffffffffffff1690565b600054610100900460ff16806114b757506114b7611b82565b806114c5575060005460ff16155b6115005760405162461bcd60e51b815260040180806020018281038252602e8152602001806120f8602e913960400191505060405180910390fd5b600054610100900460ff1615801561152b576000805460ff1961ff0019909116610100171660011790555b6001600160a01b03821661156f576040805162461bcd60e51b8152602060048083019190915260248201526304f4749360e41b604482015290519081900360640190fd5b611577611b93565b609780546001600160a01b0319166001600160a01b03841617905580156112da576000805461ff00191690555050565b609d5481565b609954600160a01b900466ffffffffffffff1681565b609954600090600160a01b900466ffffffffffffff166115e65750609e54610626565b610642611631609960149054906101000a900466ffffffffffffff1666ffffffffffffff166105ee670de0b6b3a764000061162b609b5461162b609d546105c06112de565b906119a6565b609e5490611a6d565b6099546001600160a01b0316331461168a576040805162461bcd60e51b815260206004820152600e60248201526d6d75737420626520766f74696e6760901b604482015290519081900360640190fd5b60008166ffffffffffffff16116116d9576040805162461bcd60e51b815260206004820152600e60248201526d043616e277420696e6320627920360941b604482015290519081900360640190fd5b6001600160a01b03821660009081526098602052604090205466ffffffffffffff80821691600160381b90048116830190838116908216101561174b576040805162461bcd60e51b81526020600482015260056024820152644f4628342960d81b604482015290519081900360640190fd5b8166ffffffffffffff168166ffffffffffffff1611156117a4576040805162461bcd60e51b815260206004820152600f60248201526e63616e2774206c6f636b206d6f726560881b604482015290519081900360640190fd5b6001600160a01b039093166000908152609860205260409020805466ffffffffffffff909416600160381b0266ffffffffffffff60381b19909416939093179092555050565b609e5481565b336000908152609860205260409020546118129066ffffffffffffff16610a3b565b61181a610905565b565b609a5481565b61182a611ac7565b6001600160a01b031661183b611308565b6001600160a01b031614611884576040805162461bcd60e51b81526020600482018190526024820152600080516020612147833981519152604482015290519081900360640190fd5b6001600160a01b0381166118c95760405162461bcd60e51b81526004018080602001828103825260268152602001806120ac6026913960400191505060405180910390fd5b6065546040516001600160a01b038084169216907f8be0079c531659141344cd1fd0a4f28419497f9722a3daafe3b4186f6b6457e090600090a3606580546001600160a01b0319166001600160a01b0392909216919091179055565b6001600160a01b031660009081526098602052604090205466ffffffffffffff1690565b6000828211156119a0576040805162461bcd60e51b815260206004820152601e60248201527f536166654d6174683a207375627472616374696f6e206f766572666c6f770000604482015290519081900360640190fd5b50900390565b6000826119b5575060006105fa565b828202828482816119c257fe5b04146119ff5760405162461bcd60e51b81526004018080602001828103825260218152602001806121266021913960400191505060405180910390fd5b9392505050565b6000808211611a5c576040805162461bcd60e51b815260206004820152601a60248201527f536166654d6174683a206469766973696f6e206279207a65726f000000000000604482015290519081900360640190fd5b818381611a6557fe5b049392505050565b6000828201838110156119ff576040805162461bcd60e51b815260206004820152601b60248201527f536166654d6174683a206164646974696f6e206f766572666c6f770000000000604482015290519081900360640190fd5b3390565b604080516001600160a01b038416602482015260448082018490528251808303909101815260649091019091526020810180516001600160e01b031663a9059cbb60e01b179052611b1d908490611c45565b505050565b604080516001600160a01b0380861660248301528416604482015260648082018490528251808303909101815260849091019091526020810180516001600160e01b03166323b872dd60e01b179052611b7c908590611c45565b50505050565b6000611b8d30611cf6565b15905090565b600054610100900460ff1680611bac5750611bac611b82565b80611bba575060005460ff16155b611bf55760405162461bcd60e51b815260040180806020018281038252602e8152602001806120f8602e913960400191505060405180910390fd5b600054610100900460ff16158015611c20576000805460ff1961ff0019909116610100171660011790555b611c28611cfc565b611c30611d9c565b8015611c42576000805461ff00191690555b50565b6000611c9a826040518060400160405280602081526020017f5361666545524332303a206c6f772d6c6576656c2063616c6c206661696c6564815250856001600160a01b0316611e959092919063ffffffff16565b805190915015611b1d57808060200190516020811015611cb957600080fd5b5051611b1d5760405162461bcd60e51b815260040180806020018281038252602a815260200180612167602a913960400191505060405180910390fd5b3b151590565b600054610100900460ff1680611d155750611d15611b82565b80611d23575060005460ff16155b611d5e5760405162461bcd60e51b815260040180806020018281038252602e8152602001806120f8602e913960400191505060405180910390fd5b600054610100900460ff16158015611c30576000805460ff1961ff0019909116610100171660011790558015611c42576000805461ff001916905550565b600054610100900460ff1680611db55750611db5611b82565b80611dc3575060005460ff16155b611dfe5760405162461bcd60e51b815260040180806020018281038252602e8152602001806120f8602e913960400191505060405180910390fd5b600054610100900460ff16158015611e29576000805460ff1961ff0019909116610100171660011790555b6000611e33611ac7565b606580546001600160a01b0319166001600160a01b038316908117909155604051919250906000907f8be0079c531659141344cd1fd0a4f28419497f9722a3daafe3b4186f6b6457e0908290a3508015611c42576000805461ff001916905550565b6060611ea48484600085611eac565b949350505050565b606082471015611eed5760405162461bcd60e51b81526004018080602001828103825260268152602001806120d26026913960400191505060405180910390fd5b611ef685611cf6565b611f47576040805162461bcd60e51b815260206004820152601d60248201527f416464726573733a2063616c6c20746f206e6f6e2d636f6e7472616374000000604482015290519081900360640190fd5b600080866001600160a01b031685876040518082805190602001908083835b60208310611f855780518252601f199092019160209182019101611f66565b6001836020036101000a03801982511681845116808217855250505050505090500191505060006040518083038185875af1925050503d8060008114611fe7576040519150601f19603f3d011682016040523d82523d6000602084013e611fec565b606091505b5091509150611ffc828286612007565b979650505050505050565b606083156120165750816119ff565b8251156120265782518084602001fd5b8160405162461bcd60e51b81526004018080602001828103825283818151815260200191508051906020019080838360005b83811015612070578181015183820152602001612058565b50505050905090810190601f16801561209d5780820380516001836020036101000a031916815260200191505b509250505060405180910390fdfe4f776e61626c653a206e6577206f776e657220697320746865207a65726f2061646472657373416464726573733a20696e73756666696369656e742062616c616e636520666f722063616c6c496e697469616c697a61626c653a20636f6e747261637420697320616c726561647920696e697469616c697a6564536166654d6174683a206d756c7469706c69636174696f6e206f766572666c6f774f776e61626c653a2063616c6c6572206973206e6f7420746865206f776e65725361666545524332303a204552433230206f7065726174696f6e20646964206e6f742073756363656564a26469706673582212209374c81137b11da971455c60fc67621a851a4428a7a1e6710a67867b5eacdaea64736f6c63430007060033",
  "immutableReferences": {},
  "source": "// SPDX-License-Identifier: MIT\r\npragma solidity 0.7.6;\r\n\r\nimport \"@openzeppelin/contracts/token/ERC20/IERC20.sol\";\r\nimport \"@openzeppelin/contracts/token/ERC20/SafeERC20.sol\";\r\nimport \"./interfaces/IOrionGovernance.sol\";\r\nimport \"@openzeppelin/contracts-upgradeable/utils/ReentrancyGuardUpgradeable.sol\";\r\nimport \"@openzeppelin/contracts-upgradeable/access/OwnableUpgradeable.sol\";\r\nimport \"@openzeppelin/contracts/math/SafeMath.sol\";\r\n\r\ncontract OrionGovernance is IOrionGovernance, ReentrancyGuardUpgradeable, OwnableUpgradeable {\r\n    using SafeMath for uint256;\r\n    using SafeERC20 for IERC20;\r\n\r\n    struct UserData\r\n    {\r\n        uint56 balance;\r\n        uint56 locked_balance;\r\n    }\r\n\r\n    ///////////////////////////////////////////////////\r\n    //  Data fields\r\n    //  NB: Only add new fields BELOW any fields in this section\r\n\r\n    //  Must be 8-digit token\r\n    IERC20 public staking_token_;\r\n\r\n    //  Staking balances\r\n    mapping(address => UserData) public balances_;\r\n\r\n    //  Voting contract address (now just 1 voting contract supported)\r\n    address public voting_contract_address_;\r\n\r\n    //  Total balance\r\n    uint56 public total_balance_;\r\n\r\n    //  TODO: decrease writable uint256 count\r\n    uint256 public periodFinish;\r\n    uint256 public rewardRate;\r\n    uint256 public rewardsDuration;\r\n    uint256 public lastUpdateTime;\r\n    uint256 public rewardPerTokenStored;\r\n\r\n    mapping(address => uint256) public userRewardPerTokenPaid;\r\n    mapping(address => uint256) public rewards;\r\n\r\n    //  Add new data fields there....\r\n    //      ...\r\n\r\n    //  End of data fields\r\n    /////////////////////////////////////////////////////\r\n\r\n    //  Initializer\r\n    function initialize(address staking_token) public initializer {\r\n        require(staking_token != address(0), \"OGI0\");\r\n        OwnableUpgradeable.__Ownable_init();\r\n        staking_token_ = IERC20(staking_token);\r\n    }\r\n\r\n    function setVotingContractAddress(address voting_contract_address) external onlyOwner\r\n    {\r\n        voting_contract_address_ = voting_contract_address;\r\n    }\r\n\r\n    function lastTimeRewardApplicable() override public view returns (uint256) {\r\n        //  return Math.min(block.timestamp, periodFinish);\r\n        return block.timestamp < periodFinish ? block.timestamp : periodFinish;\r\n    }\r\n\r\n    function rewardPerToken() override public view returns (uint256) {\r\n        if (total_balance_ == 0) {\r\n            return rewardPerTokenStored;\r\n        }\r\n        return\r\n        rewardPerTokenStored.add(\r\n            lastTimeRewardApplicable().sub(lastUpdateTime).mul(rewardRate).mul(1e18).div(uint(total_balance_))\r\n        );\r\n    }\r\n\r\n    function earned(address account) override public view returns (uint256) {\r\n        return uint(balances_[account].balance).mul(rewardPerToken().sub(userRewardPerTokenPaid[account])).div(1e18).add(rewards[account]);\r\n    }\r\n\r\n    function getRewardForDuration() override external view returns (uint256) {\r\n        return rewardRate.mul(rewardsDuration);\r\n    }\r\n\r\n    //  Stake\r\n    function stake(uint56 adding_amount) override public nonReentrant updateReward(msg.sender)\r\n    {\r\n        require(adding_amount > 0, \"CNS0\");\r\n        staking_token_.safeTransferFrom(msg.sender, address(this), adding_amount);\r\n\r\n        uint56 balance = balances_[msg.sender].balance;\r\n        balance += adding_amount;\r\n        require(balance >= adding_amount, \"OF(1)\");\r\n        balances_[msg.sender].balance = balance;\r\n\r\n        uint56 total_balance = total_balance_;\r\n        total_balance += adding_amount;\r\n        require(total_balance >= adding_amount, \"OF(3)\");  //  Maybe not needed\r\n        total_balance_ = total_balance;\r\n\r\n        emit Staked(msg.sender, uint256(adding_amount));\r\n    }\r\n\r\n    // Unstake\r\n    function withdraw(uint56 removing_amount) override public nonReentrant updateReward(msg.sender)\r\n    {\r\n        require(removing_amount > 0, \"CNW0\");\r\n\r\n        uint56 balance = balances_[msg.sender].balance;\r\n        require(balance >= removing_amount, \"CNW1\");\r\n        balance -= removing_amount;\r\n        balances_[msg.sender].balance= balance;\r\n\r\n        uint56 total_balance = total_balance_;\r\n        require(total_balance >= removing_amount, \"CNW2\");\r\n        total_balance -= removing_amount;\r\n        total_balance_ = total_balance;\r\n\r\n        uint56 locked_balance = balances_[msg.sender].locked_balance;\r\n        require(locked_balance <= balance, \"CNW3\");\r\n        staking_token_.safeTransfer(msg.sender, removing_amount);\r\n\r\n        emit Withdrawn(msg.sender, uint256(removing_amount));\r\n    }\r\n\r\n    function getReward() virtual override public nonReentrant updateReward(msg.sender) {\r\n        uint256 reward = rewards[msg.sender];\r\n        if (reward > 0) {\r\n            rewards[msg.sender] = 0;\r\n            staking_token_.safeTransfer(msg.sender, reward);\r\n            emit RewardPaid(msg.sender, reward);\r\n        }\r\n    }\r\n\r\n    function exit() virtual override external {\r\n        withdraw(balances_[msg.sender].balance);\r\n        getReward();\r\n    }\r\n\r\n    function acceptNewLockAmount(\r\n        address user,\r\n        uint56 new_lock_amount\r\n    ) external override onlyVotingContract\r\n    {\r\n        uint56 balance = balances_[user].balance;\r\n        require(balance >= new_lock_amount, \"Cannot lock\");\r\n        balances_[user].locked_balance = new_lock_amount;\r\n    }\r\n\r\n    function acceptLock(\r\n        address user,\r\n        uint56 lock_increase_amount\r\n    )  external override onlyVotingContract\r\n    {\r\n        require(lock_increase_amount > 0, \"Can't inc by 0\");\r\n\r\n        uint56 balance = balances_[user].balance;\r\n        uint56 locked_balance = balances_[user].locked_balance;\r\n\r\n        locked_balance += lock_increase_amount;\r\n        require(locked_balance >= lock_increase_amount, \"OF(4)\");\r\n        require(locked_balance <= balance, \"can't lock more\");\r\n\r\n        balances_[user].locked_balance = locked_balance;\r\n    }\r\n\r\n    function acceptUnlock(\r\n        address user,\r\n        uint56 lock_decrease_amount\r\n    )  external override onlyVotingContract\r\n    {\r\n        require(lock_decrease_amount > 0, \"Can't dec by 0\");\r\n\r\n        uint56 locked_balance = balances_[user].locked_balance;\r\n        require(locked_balance >= lock_decrease_amount, \"Can't unlock more\");\r\n\r\n        locked_balance -= lock_decrease_amount;\r\n        balances_[user].locked_balance = locked_balance;\r\n    }\r\n\r\n    //  Views\r\n    function getBalance(address user) public view returns(uint56)\r\n    {\r\n        return balances_[user].balance;\r\n    }\r\n\r\n    function getLockedBalance(address user) public view returns(uint56)\r\n    {\r\n        return balances_[user].locked_balance;\r\n    }\r\n\r\n    function getTotalBalance() public view returns(uint56)\r\n    {\r\n        return total_balance_;\r\n    }\r\n\r\n    //  Root methods\r\n    function notifyRewardAmount(uint256 reward, uint256 _rewardsDuration) external onlyOwner updateReward(address(0)) {\r\n        require((_rewardsDuration> 1 days) && (_rewardsDuration < 365 days), \"Incorrect rewards duration\");\r\n        rewardsDuration = _rewardsDuration;\r\n        if (block.timestamp >= periodFinish) {\r\n            rewardRate = reward.div(rewardsDuration);\r\n        } else {\r\n            uint256 remaining = periodFinish.sub(block.timestamp);\r\n            uint256 leftover = remaining.mul(rewardRate);\r\n            rewardRate = reward.add(leftover).div(rewardsDuration);\r\n        }\r\n\r\n        // Ensure the provided reward amount is not more than the balance in the contract.\r\n        // This keeps the reward rate in the right range, preventing overflows due to\r\n        // very high values of rewardRate in the earned and rewardsPerToken functions;\r\n        // Reward + leftover must be less than 2^256 / 10^18 to avoid overflow.\r\n        uint balance = staking_token_.balanceOf(address(this)); //  TODO: review\r\n        require(rewardRate <= balance.div(rewardsDuration), \"Provided reward too high\");\r\n\r\n        lastUpdateTime = block.timestamp;\r\n        periodFinish = block.timestamp.add(rewardsDuration);\r\n        emit RewardAdded(reward);\r\n    }\r\n\r\n    function emergencyAssetWithdrawal(address asset) external onlyOwner {\r\n        IERC20 token = IERC20(asset);\r\n        token.safeTransfer(owner(), token.balanceOf(address(this)));\r\n    }\r\n\r\n    //  Modifiers\r\n    modifier onlyVotingContract()\r\n    {\r\n        require(msg.sender == voting_contract_address_, \"must be voting\");\r\n        _;\r\n    }\r\n\r\n    modifier updateReward(address account) {\r\n        rewardPerTokenStored = rewardPerToken();\r\n        lastUpdateTime = lastTimeRewardApplicable();\r\n        if (account != address(0)) {\r\n            rewards[account] = earned(account);\r\n            userRewardPerTokenPaid[account] = rewardPerTokenStored;\r\n        }\r\n        _;\r\n    }\r\n\r\n    //  Events\r\n    event RewardAdded(uint256 reward);\r\n    event Staked(address indexed user, uint256 amount);\r\n    event Withdrawn(address indexed user, uint256 amount);\r\n    event RewardPaid(address indexed user, uint256 reward);\r\n}\r\n",
  "sourcePath": "C:/work/orion-14/orn-liquidity-mining/contracts/OrionGovernance.sol",
  "compiler": {
    "name": "solc",
    "version": "0.7.6+commit.7338295f.Emscripten.clang"
  },
  "schemaVersion": "3.4.0",
  "updatedAt": "2021-06-03T17:34:44.700Z",
  "devdoc": {
    "kind": "dev",
    "methods": {
      "owner()": {
        "details": "Returns the address of the current owner."
      },
      "renounceOwnership()": {
        "details": "Leaves the contract without owner. It will not be possible to call `onlyOwner` functions anymore. Can only be called by the current owner. NOTE: Renouncing ownership will leave the contract without an owner, thereby removing any functionality that is only available to the owner."
      },
      "transferOwnership(address)": {
        "details": "Transfers ownership of the contract to a new account (`newOwner`). Can only be called by the current owner."
      }
    },
    "version": 1
  },
  "userdoc": {
    "kind": "user",
    "methods": {},
    "version": 1
  }
}