{
  "contractName": "OrionStakingReward",
  "abi": [
    {
      "anonymous": false,
      "inputs": [
        {
          "indexed": true,
          "internalType": "address",
          "name": "previousOwner",
          "type": "address"
        },
        {
          "indexed": true,
          "internalType": "address",
          "name": "newOwner",
          "type": "address"
        }
      ],
      "name": "OwnershipTransferred",
      "type": "event"
    },
    {
      "anonymous": false,
      "inputs": [
        {
          "indexed": false,
          "internalType": "uint256",
          "name": "reward",
          "type": "uint256"
        }
      ],
      "name": "RewardAdded",
      "type": "event"
    },
    {
      "anonymous": false,
      "inputs": [
        {
          "indexed": true,
          "internalType": "address",
          "name": "user",
          "type": "address"
        },
        {
          "indexed": false,
          "internalType": "uint256",
          "name": "reward",
          "type": "uint256"
        }
      ],
      "name": "RewardPaid",
      "type": "event"
    },
    {
      "anonymous": false,
      "inputs": [
        {
          "indexed": true,
          "internalType": "address",
          "name": "user",
          "type": "address"
        },
        {
          "indexed": false,
          "internalType": "uint256",
          "name": "amount",
          "type": "uint256"
        }
      ],
      "name": "Staked",
      "type": "event"
    },
    {
      "anonymous": false,
      "inputs": [
        {
          "indexed": false,
          "internalType": "uint256",
          "name": "balances_account",
          "type": "uint256"
        },
        {
          "indexed": false,
          "internalType": "uint256",
          "name": "rewardPerToken",
          "type": "uint256"
        },
        {
          "indexed": false,
          "internalType": "uint256",
          "name": "userRewardPerTokenPaid_account",
          "type": "uint256"
        },
        {
          "indexed": false,
          "internalType": "uint256",
          "name": "rewards_account",
          "type": "uint256"
        },
        {
          "indexed": false,
          "internalType": "uint256",
          "name": "voting_contract_getPoolRewards",
          "type": "uint256"
        }
      ],
      "name": "TestEarnedCalc",
      "type": "event"
    },
    {
      "anonymous": false,
      "inputs": [
        {
          "indexed": false,
          "internalType": "uint256",
          "name": "_rewardPerToken",
          "type": "uint256"
        }
      ],
      "name": "TestRewardPerToken",
      "type": "event"
    },
    {
      "anonymous": false,
      "inputs": [
        {
          "indexed": false,
          "internalType": "uint256",
          "name": "_rewardPerTokenStored",
          "type": "uint256"
        },
        {
          "indexed": false,
          "internalType": "uint256",
          "name": "_voting_pool_accumulator_stored",
          "type": "uint256"
        }
      ],
      "name": "TestUpdateReward",
      "type": "event"
    },
    {
      "anonymous": false,
      "inputs": [
        {
          "indexed": false,
          "internalType": "uint256",
          "name": "rewards",
          "type": "uint256"
        },
        {
          "indexed": false,
          "internalType": "uint256",
          "name": "userRewardPerTokenPaid",
          "type": "uint256"
        }
      ],
      "name": "TestUpdateRewardUser",
      "type": "event"
    },
    {
      "anonymous": false,
      "inputs": [
        {
          "indexed": true,
          "internalType": "address",
          "name": "user",
          "type": "address"
        },
        {
          "indexed": false,
          "internalType": "uint256",
          "name": "amount",
          "type": "uint256"
        }
      ],
      "name": "Withdrawn",
      "type": "event"
    },
    {
      "inputs": [
        {
          "internalType": "address",
          "name": "",
          "type": "address"
        }
      ],
      "name": "_balances",
      "outputs": [
        {
          "internalType": "uint256",
          "name": "",
          "type": "uint256"
        }
      ],
      "stateMutability": "view",
      "type": "function"
    },
    {
      "inputs": [],
      "name": "owner",
      "outputs": [
        {
          "internalType": "address",
          "name": "",
          "type": "address"
        }
      ],
      "stateMutability": "view",
      "type": "function"
    },
    {
      "inputs": [],
      "name": "renounceOwnership",
      "outputs": [],
      "stateMutability": "nonpayable",
      "type": "function"
    },
    {
      "inputs": [],
      "name": "rewardPerTokenStored",
      "outputs": [
        {
          "internalType": "uint256",
          "name": "",
          "type": "uint256"
        }
      ],
      "stateMutability": "view",
      "type": "function"
    },
    {
      "inputs": [
        {
          "internalType": "address",
          "name": "",
          "type": "address"
        }
      ],
      "name": "rewards",
      "outputs": [
        {
          "internalType": "uint256",
          "name": "",
          "type": "uint256"
        }
      ],
      "stateMutability": "view",
      "type": "function"
    },
    {
      "inputs": [],
      "name": "stakingToken",
      "outputs": [
        {
          "internalType": "contract IERC20",
          "name": "",
          "type": "address"
        }
      ],
      "stateMutability": "view",
      "type": "function"
    },
    {
      "inputs": [
        {
          "internalType": "address",
          "name": "newOwner",
          "type": "address"
        }
      ],
      "name": "transferOwnership",
      "outputs": [],
      "stateMutability": "nonpayable",
      "type": "function"
    },
    {
      "inputs": [
        {
          "internalType": "address",
          "name": "",
          "type": "address"
        }
      ],
      "name": "userRewardPerTokenPaid",
      "outputs": [
        {
          "internalType": "uint256",
          "name": "",
          "type": "uint256"
        }
      ],
      "stateMutability": "view",
      "type": "function"
    },
    {
      "inputs": [],
      "name": "voting_contract_",
      "outputs": [
        {
          "internalType": "contract IOrionVoting",
          "name": "",
          "type": "address"
        }
      ],
      "stateMutability": "view",
      "type": "function"
    },
    {
      "inputs": [],
      "name": "voting_pool_accumulator_stored_",
      "outputs": [
        {
          "internalType": "uint256",
          "name": "",
          "type": "uint256"
        }
      ],
      "stateMutability": "view",
      "type": "function"
    },
    {
      "inputs": [
        {
          "internalType": "address",
          "name": "_stakingToken",
          "type": "address"
        },
        {
          "internalType": "address",
          "name": "voting_contract_address",
          "type": "address"
        }
      ],
      "name": "initialize",
      "outputs": [],
      "stateMutability": "nonpayable",
      "type": "function"
    },
    {
      "inputs": [],
      "name": "totalSupply",
      "outputs": [
        {
          "internalType": "uint256",
          "name": "",
          "type": "uint256"
        }
      ],
      "stateMutability": "view",
      "type": "function"
    },
    {
      "inputs": [
        {
          "internalType": "address",
          "name": "account",
          "type": "address"
        }
      ],
      "name": "balanceOf",
      "outputs": [
        {
          "internalType": "uint256",
          "name": "",
          "type": "uint256"
        }
      ],
      "stateMutability": "view",
      "type": "function"
    },
    {
      "inputs": [],
      "name": "rewardPerToken",
      "outputs": [
        {
          "internalType": "uint256",
          "name": "",
          "type": "uint256"
        }
      ],
      "stateMutability": "view",
      "type": "function"
    },
    {
      "inputs": [
        {
          "internalType": "address",
          "name": "account",
          "type": "address"
        }
      ],
      "name": "earned",
      "outputs": [
        {
          "internalType": "uint256",
          "name": "",
          "type": "uint256"
        }
      ],
      "stateMutability": "view",
      "type": "function"
    },
    {
      "inputs": [
        {
          "internalType": "uint256",
          "name": "amount",
          "type": "uint256"
        },
        {
          "internalType": "uint256",
          "name": "deadline",
          "type": "uint256"
        },
        {
          "internalType": "uint8",
          "name": "v",
          "type": "uint8"
        },
        {
          "internalType": "bytes32",
          "name": "r",
          "type": "bytes32"
        },
        {
          "internalType": "bytes32",
          "name": "s",
          "type": "bytes32"
        }
      ],
      "name": "stakeWithPermit",
      "outputs": [],
      "stateMutability": "nonpayable",
      "type": "function"
    },
    {
      "inputs": [
        {
          "internalType": "uint256",
          "name": "amount",
          "type": "uint256"
        }
      ],
      "name": "stake",
      "outputs": [],
      "stateMutability": "nonpayable",
      "type": "function"
    },
    {
      "inputs": [
        {
          "internalType": "uint256",
          "name": "amount",
          "type": "uint256"
        },
        {
          "internalType": "address",
          "name": "to",
          "type": "address"
        }
      ],
      "name": "stakeTo",
      "outputs": [],
      "stateMutability": "nonpayable",
      "type": "function"
    },
    {
      "inputs": [
        {
          "internalType": "uint256",
          "name": "amount",
          "type": "uint256"
        }
      ],
      "name": "withdraw",
      "outputs": [],
      "stateMutability": "nonpayable",
      "type": "function"
    },
    {
      "inputs": [],
      "name": "getReward",
      "outputs": [],
      "stateMutability": "nonpayable",
      "type": "function"
    },
    {
      "inputs": [],
      "name": "exit",
      "outputs": [],
      "stateMutability": "nonpayable",
      "type": "function"
    },
    {
      "inputs": [
        {
          "internalType": "address",
          "name": "asset",
          "type": "address"
        }
      ],
      "name": "emergencyAssetWithdrawal",
      "outputs": [],
      "stateMutability": "nonpayable",
      "type": "function"
    }
  ],
  "bytecode": "0x608060405234801561001057600080fd5b506122fe806100206000396000f3fe608060405234801561001057600080fd5b50600436106101415760003560e01c806372f702f3116100b8578063a694fc3a1161007c578063a694fc3a14610309578063cd3daf9d14610326578063df136d651461032e578063e9fad8ee14610336578063ecd9ba821461033e578063f2fde38b1461037657610141565b806372f702f31461028957806378c5baef146102ad5780637f8512c1146102b55780638b876347146102db5780638da5cb5b1461030157610141565b80633d18b9121161010a5780633d18b912146101d3578063485cc955146101db57806354d39b34146102095780636ebcf6071461023557806370a082311461025b578063715018a61461028157610141565b80628cc262146101465780630700037d1461017e57806318160ddd146101a457806318af6f22146101ac5780632e1a7d4d146101b4575b600080fd5b61016c6004803603602081101561015c57600080fd5b50356001600160a01b031661039c565b60408051918252519081900360200190f35b61016c6004803603602081101561019457600080fd5b50356001600160a01b031661041a565b61016c61042c565b61016c610433565b6101d1600480360360208110156101ca57600080fd5b5035610439565b005b6101d161079a565b6101d1600480360360408110156101f157600080fd5b506001600160a01b0381358116916020013516610af4565b6101d16004803603604081101561021f57600080fd5b50803590602001356001600160a01b0316610bd0565b61016c6004803603602081101561024b57600080fd5b50356001600160a01b0316610e67565b61016c6004803603602081101561027157600080fd5b50356001600160a01b0316610e79565b6101d1610e94565b610291610f52565b604080516001600160a01b039092168252519081900360200190f35b610291610f61565b6101d1600480360360208110156102cb57600080fd5b50356001600160a01b0316610f70565b61016c600480360360208110156102f157600080fd5b50356001600160a01b0316611077565b610291611089565b6101d16004803603602081101561031f57600080fd5b5035611098565b61016c611326565b61016c6113f1565b6101d16113f7565b6101d1600480360360a081101561035457600080fd5b5080359060208101359060ff604082013516906060810135906080013561141a565b6101d16004803603602081101561038c57600080fd5b50356001600160a01b0316611808565b6001600160a01b0381166000908152609c6020908152604080832054609b909252822054610414919061040e90670de0b6b3a764000090610408906103e9906103e3611326565b9061191d565b6001600160a01b0388166000908152609e60205260409020549061197a565b906119da565b90611a41565b92915050565b609c6020526000908152604090205481565b609d545b90565b609a5481565b6002600154141561047f576040805162461bcd60e51b815260206004820152601f6024820152600080516020612164833981519152604482015290519081900360640190fd5b6002600155336000805160206121ca83398151915261049c611326565b60408051918252519081900360200190a16104b5611326565b609955609854604080516356e8b9cd60e11b815230600482015290516001600160a01b039092169163add1739a91602480820192602092909190829003018186803b15801561050357600080fd5b505afa158015610517573d6000803e3d6000fd5b505050506040513d602081101561052d57600080fd5b5051609a556001600160a01b0381161561068c576001600160a01b0381166000908152609e602052604090205460008051602061227f83398151915290610572611326565b6001600160a01b038085166000908152609b6020908152604080832054609c8352928190205460985482516356e8b9cd60e11b815230600482015292519495919491169263add1739a9260248082019391829003018186803b1580156105d757600080fd5b505afa1580156105eb573d6000803e3d6000fd5b505050506040513d602081101561060157600080fd5b50516040805195865260208601949094528484019290925260608401526080830152519081900360a00190a16106368161039c565b6001600160a01b0382166000908152609c60209081526040808320938455609954609b83529281902083905592548351908152908101919091528151600080516020612184833981519152929181900390910190a15b60008051602061223e833981519152609954609a54604051808381526020018281526020019250505060405180910390a160008211610706576040805162461bcd60e51b8152602060048201526011602482015270043616e6e6f74207769746864726177203607c1b604482015290519081900360640190fd5b609d54610713908361191d565b609d55336000908152609e6020526040902054610730908361191d565b336000818152609e602052604090209190915560975461075c916001600160a01b039091169084611a9b565b60408051838152905133917f7084f5476618d8e60b11ef0d7d3f06914655adb8793e28ff7f018d4c76d505d5919081900360200190a2505060018055565b600260015414156107e0576040805162461bcd60e51b815260206004820152601f6024820152600080516020612164833981519152604482015290519081900360640190fd5b6002600155336000805160206121ca8339815191526107fd611326565b60408051918252519081900360200190a1610816611326565b609955609854604080516356e8b9cd60e11b815230600482015290516001600160a01b039092169163add1739a91602480820192602092909190829003018186803b15801561086457600080fd5b505afa158015610878573d6000803e3d6000fd5b505050506040513d602081101561088e57600080fd5b5051609a556001600160a01b038116156109ed576001600160a01b0381166000908152609e602052604090205460008051602061227f833981519152906108d3611326565b6001600160a01b038085166000908152609b6020908152604080832054609c8352928190205460985482516356e8b9cd60e11b815230600482015292519495919491169263add1739a9260248082019391829003018186803b15801561093857600080fd5b505afa15801561094c573d6000803e3d6000fd5b505050506040513d602081101561096257600080fd5b50516040805195865260208601949094528484019290925260608401526080830152519081900360a00190a16109978161039c565b6001600160a01b0382166000908152609c60209081526040808320938455609954609b83529281902083905592548351908152908101919091528151600080516020612184833981519152929181900390910190a15b60008051602061223e833981519152609954609a54604051808381526020018281526020019250505060405180910390a1336000908152609c60205260409020548015610aec57336000818152609c6020526040808220829055609854815162d2664560e21b815266ffffffffffffff86166004820152602481019490945290516001600160a01b0390911692630349991492604480830193919282900301818387803b158015610a9d57600080fd5b505af1158015610ab1573d6000803e3d6000fd5b50506040805184815290513393507fe2403640ba68fed3a2f88b7557551d1993f84b99bb10ff833f0cf8db0c5e048692509081900360200190a25b505060018055565b600054610100900460ff1680610b0d5750610b0d611aed565b80610b1b575060005460ff16155b610b565760405162461bcd60e51b815260040180806020018281038252602e815260200180612210602e913960400191505060405180910390fd5b600054610100900460ff16158015610b81576000805460ff1961ff0019909116610100171660011790555b610b89611afe565b609780546001600160a01b038086166001600160a01b03199283161790925560988054928516929091169190911790558015610bcb576000805461ff00191690555b505050565b60026001541415610c16576040805162461bcd60e51b815260206004820152601f6024820152600080516020612164833981519152604482015290519081900360640190fd5b6002600155806000805160206121ca833981519152610c33611326565b60408051918252519081900360200190a1610c4c611326565b609955609854604080516356e8b9cd60e11b815230600482015290516001600160a01b039092169163add1739a91602480820192602092909190829003018186803b158015610c9a57600080fd5b505afa158015610cae573d6000803e3d6000fd5b505050506040513d6020811015610cc457600080fd5b5051609a556001600160a01b03811615610e23576001600160a01b0381166000908152609e602052604090205460008051602061227f83398151915290610d09611326565b6001600160a01b038085166000908152609b6020908152604080832054609c8352928190205460985482516356e8b9cd60e11b815230600482015292519495919491169263add1739a9260248082019391829003018186803b158015610d6e57600080fd5b505afa158015610d82573d6000803e3d6000fd5b505050506040513d6020811015610d9857600080fd5b50516040805195865260208601949094528484019290925260608401526080830152519081900360a00190a1610dcd8161039c565b6001600160a01b0382166000908152609c60209081526040808320938455609954609b83529281902083905592548351908152908101919091528151600080516020612184833981519152929181900390910190a15b60008051602061223e833981519152609954609a54604051808381526020018281526020019250505060405180910390a1610e5e8383611bb0565b50506001805550565b609e6020526000908152604090205481565b6001600160a01b03166000908152609e602052604090205490565b610e9c611c99565b6001600160a01b0316610ead611089565b6001600160a01b031614610f08576040805162461bcd60e51b815260206004820181905260248201527f4f776e61626c653a2063616c6c6572206973206e6f7420746865206f776e6572604482015290519081900360640190fd5b6065546040516000916001600160a01b0316907f8be0079c531659141344cd1fd0a4f28419497f9722a3daafe3b4186f6b6457e0908390a3606580546001600160a01b0319169055565b6097546001600160a01b031681565b6098546001600160a01b031681565b610f78611c99565b6001600160a01b0316610f89611089565b6001600160a01b031614610fe4576040805162461bcd60e51b815260206004820181905260248201527f4f776e61626c653a2063616c6c6572206973206e6f7420746865206f776e6572604482015290519081900360640190fd5b80611073610ff0611089565b604080516370a0823160e01b815230600482015290516001600160a01b038516916370a08231916024808301926020929190829003018186803b15801561103657600080fd5b505afa15801561104a573d6000803e3d6000fd5b505050506040513d602081101561106057600080fd5b50516001600160a01b0384169190611a9b565b5050565b609b6020526000908152604090205481565b6065546001600160a01b031690565b600260015414156110de576040805162461bcd60e51b815260206004820152601f6024820152600080516020612164833981519152604482015290519081900360640190fd5b6002600155336000805160206121ca8339815191526110fb611326565b60408051918252519081900360200190a1611114611326565b609955609854604080516356e8b9cd60e11b815230600482015290516001600160a01b039092169163add1739a91602480820192602092909190829003018186803b15801561116257600080fd5b505afa158015611176573d6000803e3d6000fd5b505050506040513d602081101561118c57600080fd5b5051609a556001600160a01b038116156112eb576001600160a01b0381166000908152609e602052604090205460008051602061227f833981519152906111d1611326565b6001600160a01b038085166000908152609b6020908152604080832054609c8352928190205460985482516356e8b9cd60e11b815230600482015292519495919491169263add1739a9260248082019391829003018186803b15801561123657600080fd5b505afa15801561124a573d6000803e3d6000fd5b505050506040513d602081101561126057600080fd5b50516040805195865260208601949094528484019290925260608401526080830152519081900360a00190a16112958161039c565b6001600160a01b0382166000908152609c60209081526040808320938455609954609b83529281902083905592548351908152908101919091528151600080516020612184833981519152929181900390910190a15b60008051602061223e833981519152609954609a54604051808381526020018281526020019250505060405180910390a1610aec8233611bb0565b6000609d546000141561133c5750609954610430565b609854604080516356e8b9cd60e11b815230600482015290516000926001600160a01b03169163add1739a916024808301926020929190829003018186803b15801561138757600080fd5b505afa15801561139b573d6000803e3d6000fd5b505050506040513d60208110156113b157600080fd5b5051609a549091506000906113c790839061191d565b90506113ea6113e1609d54836119da90919063ffffffff16565b60995490611a41565b9250505090565b60995481565b336000908152609e602052604090205461141090610439565b61141861079a565b565b60026001541415611460576040805162461bcd60e51b815260206004820152601f6024820152600080516020612164833981519152604482015290519081900360640190fd5b6002600155336000805160206121ca83398151915261147d611326565b60408051918252519081900360200190a1611496611326565b609955609854604080516356e8b9cd60e11b815230600482015290516001600160a01b039092169163add1739a91602480820192602092909190829003018186803b1580156114e457600080fd5b505afa1580156114f8573d6000803e3d6000fd5b505050506040513d602081101561150e57600080fd5b5051609a556001600160a01b0381161561166d576001600160a01b0381166000908152609e602052604090205460008051602061227f83398151915290611553611326565b6001600160a01b038085166000908152609b6020908152604080832054609c8352928190205460985482516356e8b9cd60e11b815230600482015292519495919491169263add1739a9260248082019391829003018186803b1580156115b857600080fd5b505afa1580156115cc573d6000803e3d6000fd5b505050506040513d60208110156115e257600080fd5b50516040805195865260208601949094528484019290925260608401526080830152519081900360a00190a16116178161039c565b6001600160a01b0382166000908152609c60209081526040808320938455609954609b83529281902083905592548351908152908101919091528151600080516020612184833981519152929181900390910190a15b60008051602061223e833981519152609954609a54604051808381526020018281526020019250505060405180910390a1600086116116e4576040805162461bcd60e51b815260206004820152600e60248201526d043616e6e6f74207374616b6520360941b604482015290519081900360640190fd5b609d546116f19087611a41565b609d55336000908152609e602052604090205461170e9087611a41565b336000818152609e602052604080822093909355609754835163d505accf60e01b81526004810193909352306024840152604483018a90526064830189905260ff8816608484015260a4830187905260c4830186905292516001600160a01b039093169263d505accf9260e480820193929182900301818387803b15801561179557600080fd5b505af11580156117a9573d6000803e3d6000fd5b50506097546117c692506001600160a01b03169050333089611c9d565b60408051878152905133917f9e71bc8eea02a63969f509818f2dafb9254532904319f9dbda79b67bd34a5f3d919081900360200190a250506001805550505050565b611810611c99565b6001600160a01b0316611821611089565b6001600160a01b03161461187c576040805162461bcd60e51b815260206004820181905260248201527f4f776e61626c653a2063616c6c6572206973206e6f7420746865206f776e6572604482015290519081900360640190fd5b6001600160a01b0381166118c15760405162461bcd60e51b81526004018080602001828103825260268152602001806121a46026913960400191505060405180910390fd5b6065546040516001600160a01b038084169216907f8be0079c531659141344cd1fd0a4f28419497f9722a3daafe3b4186f6b6457e090600090a3606580546001600160a01b0319166001600160a01b0392909216919091179055565b600082821115611974576040805162461bcd60e51b815260206004820152601e60248201527f536166654d6174683a207375627472616374696f6e206f766572666c6f770000604482015290519081900360640190fd5b50900390565b60008261198957506000610414565b8282028284828161199657fe5b04146119d35760405162461bcd60e51b815260040180806020018281038252602181526020018061225e6021913960400191505060405180910390fd5b9392505050565b6000808211611a30576040805162461bcd60e51b815260206004820152601a60248201527f536166654d6174683a206469766973696f6e206279207a65726f000000000000604482015290519081900360640190fd5b818381611a3957fe5b049392505050565b6000828201838110156119d3576040805162461bcd60e51b815260206004820152601b60248201527f536166654d6174683a206164646974696f6e206f766572666c6f770000000000604482015290519081900360640190fd5b604080516001600160a01b038416602482015260448082018490528251808303909101815260649091019091526020810180516001600160e01b031663a9059cbb60e01b179052610bcb908490611cfd565b6000611af830611dae565b15905090565b600054610100900460ff1680611b175750611b17611aed565b80611b25575060005460ff16155b611b605760405162461bcd60e51b815260040180806020018281038252602e815260200180612210602e913960400191505060405180910390fd5b600054610100900460ff16158015611b8b576000805460ff1961ff0019909116610100171660011790555b611b93611db4565b611b9b611e54565b8015611bad576000805461ff00191690555b50565b60008211611bf6576040805162461bcd60e51b815260206004820152600e60248201526d043616e6e6f74207374616b6520360941b604482015290519081900360640190fd5b609d54611c039083611a41565b609d556001600160a01b0381166000908152609e6020526040902054611c299083611a41565b6001600160a01b038083166000908152609e6020526040902091909155609754611c569116333085611c9d565b6040805183815290516001600160a01b038316917f9e71bc8eea02a63969f509818f2dafb9254532904319f9dbda79b67bd34a5f3d919081900360200190a25050565b3390565b604080516001600160a01b0380861660248301528416604482015260648082018490528251808303909101815260849091019091526020810180516001600160e01b03166323b872dd60e01b179052611cf7908590611cfd565b50505050565b6000611d52826040518060400160405280602081526020017f5361666545524332303a206c6f772d6c6576656c2063616c6c206661696c6564815250856001600160a01b0316611f4d9092919063ffffffff16565b805190915015610bcb57808060200190516020811015611d7157600080fd5b5051610bcb5760405162461bcd60e51b815260040180806020018281038252602a81526020018061229f602a913960400191505060405180910390fd5b3b151590565b600054610100900460ff1680611dcd5750611dcd611aed565b80611ddb575060005460ff16155b611e165760405162461bcd60e51b815260040180806020018281038252602e815260200180612210602e913960400191505060405180910390fd5b600054610100900460ff16158015611b9b576000805460ff1961ff0019909116610100171660011790558015611bad576000805461ff001916905550565b600054610100900460ff1680611e6d5750611e6d611aed565b80611e7b575060005460ff16155b611eb65760405162461bcd60e51b815260040180806020018281038252602e815260200180612210602e913960400191505060405180910390fd5b600054610100900460ff16158015611ee1576000805460ff1961ff0019909116610100171660011790555b6000611eeb611c99565b606580546001600160a01b0319166001600160a01b038316908117909155604051919250906000907f8be0079c531659141344cd1fd0a4f28419497f9722a3daafe3b4186f6b6457e0908290a3508015611bad576000805461ff001916905550565b6060611f5c8484600085611f64565b949350505050565b606082471015611fa55760405162461bcd60e51b81526004018080602001828103825260268152602001806121ea6026913960400191505060405180910390fd5b611fae85611dae565b611fff576040805162461bcd60e51b815260206004820152601d60248201527f416464726573733a2063616c6c20746f206e6f6e2d636f6e7472616374000000604482015290519081900360640190fd5b600080866001600160a01b031685876040518082805190602001908083835b6020831061203d5780518252601f19909201916020918201910161201e565b6001836020036101000a03801982511681845116808217855250505050505090500191505060006040518083038185875af1925050503d806000811461209f576040519150601f19603f3d011682016040523d82523d6000602084013e6120a4565b606091505b50915091506120b48282866120bf565b979650505050505050565b606083156120ce5750816119d3565b8251156120de5782518084602001fd5b8160405162461bcd60e51b81526004018080602001828103825283818151815260200191508051906020019080838360005b83811015612128578181015183820152602001612110565b50505050905090810190601f1680156121555780820380516001836020036101000a031916815260200191505b509250505060405180910390fdfe5265656e7472616e637947756172643a207265656e7472616e742063616c6c006650e5bf38a2024eb80946d62e369079f40dca0f09e24ae0bf66e0676bb855674f776e61626c653a206e6577206f776e657220697320746865207a65726f20616464726573736e6274e60f152b1f5484c37739c4b887e602755397ce60d647ba408fe2ef8538416464726573733a20696e73756666696369656e742062616c616e636520666f722063616c6c496e697469616c697a61626c653a20636f6e747261637420697320616c726561647920696e697469616c697a656418fe8f2e2a9188b08e3a6b30c22ca1c5ed76e67cc8dcd09d7da876b642872c69536166654d6174683a206d756c7469706c69636174696f6e206f766572666c6f775316275da5f9d9828a21c07ad00f16b766158186408e7f9849d1f7b6afe3ab265361666545524332303a204552433230206f7065726174696f6e20646964206e6f742073756363656564a264697066735822122001179552d6a3e79a0bf867dde96b6e78aafed92e85601a4495051a8c8e40cfb364736f6c63430007060033",
  "immutableReferences": {},
  "source": "// SPDX-License-Identifier: MIT\r\npragma solidity 0.7.6;\r\n\r\nimport \"./interfaces/IStakingRewards.sol\";\r\nimport \"./interfaces/IOrionVoting.sol\";\r\n\r\nimport \"@openzeppelin/contracts/math/SafeMath.sol\";\r\nimport \"@openzeppelin/contracts/token/ERC20/IERC20.sol\";\r\nimport \"@openzeppelin/contracts/token/ERC20/SafeERC20.sol\";\r\n\r\nimport \"@openzeppelin/contracts-upgradeable/utils/ReentrancyGuardUpgradeable.sol\";\r\nimport \"@openzeppelin/contracts-upgradeable/access/OwnableUpgradeable.sol\";\r\n\r\ncontract OrionStakingReward is IStakingRewards, ReentrancyGuardUpgradeable, OwnableUpgradeable {\r\n    using SafeMath for uint256;\r\n    using SafeERC20 for IERC20;\r\n\r\n    ///////////////////////////////////////////////////\r\n    //  Data fields\r\n    //  NB: Only add new fields BELOW any fields in this section\r\n\r\n    IERC20 public stakingToken;\r\n    IOrionVoting public voting_contract_;\r\n\r\n    uint256 public rewardPerTokenStored;\r\n    uint256 public voting_pool_accumulator_stored_;\r\n\r\n    mapping(address => uint256) public userRewardPerTokenPaid;\r\n    mapping(address => uint256) public rewards;\r\n\r\n    uint256 private _totalSupply;\r\n    mapping(address => uint256) public _balances;\r\n\r\n    //  Add new data fields there....\r\n    //      ...\r\n\r\n    //  End of data fields\r\n    /////////////////////////////////////////////////////\r\n\r\n    /* ========== CONSTRUCTOR ========== */\r\n\r\n    function initialize(\r\n        address _stakingToken,\r\n        address voting_contract_address\r\n    ) public initializer {\r\n        OwnableUpgradeable.__Ownable_init();\r\n        stakingToken = IERC20(_stakingToken);\r\n        voting_contract_ = IOrionVoting(voting_contract_address);\r\n    }\r\n\r\n    /* ========== VIEWS ========== */\r\n\r\n    function totalSupply() override external view returns (uint256) {\r\n        return _totalSupply;\r\n    }\r\n\r\n    function balanceOf(address account) override external view returns (uint256) {\r\n        return _balances[account];\r\n    }\r\n\r\n    //  Actually it's thr reward per token\r\n    //  i.e it's already have \"time function\" inside (grows with a time, if lastUpdateTime\r\n    //  isn;'t changed\r\n    function rewardPerToken() override public view returns (uint256) {\r\n        if (_totalSupply == 0) {\r\n            return rewardPerTokenStored;\r\n        }\r\n\r\n        //  Get value from voting contract\r\n        //\r\n        uint256 new_voting_pool_acc = voting_contract_.getPoolRewards(address(this));\r\n\r\n        //  Substract the saved value\r\n        uint256 pool_rewards = new_voting_pool_acc.sub(voting_pool_accumulator_stored_);\r\n\r\n        return\r\n            rewardPerTokenStored.add(\r\n                pool_rewards.div(_totalSupply)\r\n            );\r\n    }\r\n\r\n    function earned(address account) override public view returns (uint256) {\r\n        return _balances[account].mul(rewardPerToken().sub(userRewardPerTokenPaid[account])).div(1e18).add(rewards[account]);\r\n    }\r\n\r\n    /* ========== MUTATIVE FUNCTIONS ========== */\r\n\r\n    function stakeWithPermit(uint256 amount, uint deadline, uint8 v, bytes32 r, bytes32 s) override external nonReentrant updateReward(msg.sender) {\r\n        require(amount > 0, \"Cannot stake 0\");\r\n        _totalSupply = _totalSupply.add(amount);\r\n        _balances[msg.sender] = _balances[msg.sender].add(amount);\r\n\r\n        // permit\r\n        IUniswapV2ERC20(address(stakingToken)).permit(msg.sender, address(this), amount, deadline, v, r, s);\r\n\r\n        stakingToken.safeTransferFrom(msg.sender, address(this), amount);\r\n        emit Staked(msg.sender, amount);\r\n    }\r\n\r\n    function _stake(uint256 amount, address to) internal {\r\n        require(amount > 0, \"Cannot stake 0\");\r\n        _totalSupply = _totalSupply.add(amount);\r\n        _balances[to] = _balances[to].add(amount);\r\n        stakingToken.safeTransferFrom(msg.sender, address(this), amount);\r\n        emit Staked(to, amount);\r\n    }\r\n\r\n    function stake(uint256 amount) virtual override public nonReentrant updateReward(msg.sender) {\r\n        _stake(amount, msg.sender);\r\n    }\r\n\r\n    function stakeTo(uint256 amount, address to) virtual override public nonReentrant updateReward(to) {\r\n        _stake(amount, to);\r\n    }\r\n\r\n    function withdraw(uint256 amount) virtual override public nonReentrant updateReward(msg.sender) {\r\n        require(amount > 0, \"Cannot withdraw 0\");\r\n        _totalSupply = _totalSupply.sub(amount);\r\n        _balances[msg.sender] = _balances[msg.sender].sub(amount);\r\n        stakingToken.safeTransfer(msg.sender, amount);\r\n        emit Withdrawn(msg.sender, amount);\r\n    }\r\n\r\n    function getReward() virtual override public nonReentrant updateReward(msg.sender) {\r\n        uint256 reward = rewards[msg.sender];\r\n        if (reward > 0) {\r\n            rewards[msg.sender] = 0;\r\n            voting_contract_.claimRewards(uint56(reward), msg.sender);\r\n            emit RewardPaid(msg.sender, reward);\r\n        }\r\n    }\r\n\r\n    function exit() virtual override external {\r\n        withdraw(_balances[msg.sender]);\r\n        getReward();\r\n    }\r\n\r\n    function emergencyAssetWithdrawal(address asset) external onlyOwner {\r\n      IERC20 token = IERC20(asset);\r\n      token.safeTransfer(OwnableUpgradeable.owner(), token.balanceOf(address(this)));\r\n    }\r\n\r\n    /* ========== MODIFIERS ========== */\r\n\r\n    modifier updateReward(address account) {\r\n        emit TestRewardPerToken(rewardPerToken());\r\n        rewardPerTokenStored = rewardPerToken();\r\n        //  ???\r\n        voting_pool_accumulator_stored_ = voting_contract_.getPoolRewards(address(this));\r\n\r\n        if (account != address(0)) {\r\n            //  All of earned\r\n            //  return _balances[account].mul(rewardPerToken().sub(userRewardPerTokenPaid[account])).div(1e18).add(rewards[account]);\r\n            emit TestEarnedCalc(\r\n                _balances[account],\r\n                rewardPerToken(),\r\n                userRewardPerTokenPaid[account],\r\n                rewards[account],\r\n                voting_contract_.getPoolRewards(address(this))\r\n            );\r\n\r\n            rewards[account] = earned(account);\r\n            userRewardPerTokenPaid[account] = rewardPerTokenStored;\r\n\r\n            emit TestUpdateRewardUser(rewards[account], userRewardPerTokenPaid[account]);\r\n        }\r\n\r\n        emit TestUpdateReward(rewardPerTokenStored, voting_pool_accumulator_stored_);\r\n        _;\r\n    }\r\n\r\n    /* ========== EVENTS ========== */\r\n    //  TEst event\r\n    event TestUpdateReward(\r\n        uint256 _rewardPerTokenStored,\r\n        uint256 _voting_pool_accumulator_stored\r\n    );\r\n\r\n    event TestRewardPerToken(\r\n        uint256 _rewardPerToken\r\n    );\r\n\r\n\r\n    event TestEarnedCalc\r\n    (\r\n        uint256 balances_account,\r\n        uint256 rewardPerToken,\r\n        uint256 userRewardPerTokenPaid_account,\r\n        uint256 rewards_account,\r\n        uint256 voting_contract_getPoolRewards\r\n    );\r\n\r\n    event TestUpdateRewardUser\r\n    (\r\n        uint256 rewards,\r\n        uint256 userRewardPerTokenPaid\r\n    );\r\n\r\n    event RewardAdded(uint256 reward);\r\n    event Staked(address indexed user, uint256 amount);\r\n    event Withdrawn(address indexed user, uint256 amount);\r\n    event RewardPaid(address indexed user, uint256 reward);\r\n}\r\n\r\n",
  "sourcePath": "C:/work/orion-14/orn-liquidity-mining/contracts/OrionStakingReward.sol",
  "compiler": {
    "name": "solc",
    "version": "0.7.6+commit.7338295f.Emscripten.clang"
  },
  "schemaVersion": "3.4.0",
  "updatedAt": "2021-06-03T17:34:44.738Z",
  "devdoc": {
    "kind": "dev",
    "methods": {
      "owner()": {
        "details": "Returns the address of the current owner."
      },
      "renounceOwnership()": {
        "details": "Leaves the contract without owner. It will not be possible to call `onlyOwner` functions anymore. Can only be called by the current owner. NOTE: Renouncing ownership will leave the contract without an owner, thereby removing any functionality that is only available to the owner."
      },
      "transferOwnership(address)": {
        "details": "Transfers ownership of the contract to a new account (`newOwner`). Can only be called by the current owner."
      }
    },
    "version": 1
  },
  "userdoc": {
    "kind": "user",
    "methods": {},
    "version": 1
  }
}